{"abi":[{"inputs":[{"internalType":"uint256","name":"minimum","type":"uint256"},{"internalType":"address","name":"creator","type":"address"}],"stateMutability":"nonpayable","type":"constructor"},{"inputs":[{"internalType":"uint256","name":"index","type":"uint256"}],"name":"approveRequest","outputs":[],"stateMutability":"nonpayable","type":"function"},{"inputs":[{"internalType":"address","name":"","type":"address"}],"name":"approvers","outputs":[{"internalType":"bool","name":"","type":"bool"}],"stateMutability":"view","type":"function"},{"inputs":[],"name":"approversCount","outputs":[{"internalType":"uint256","name":"","type":"uint256"}],"stateMutability":"view","type":"function"},{"inputs":[],"name":"contribute","outputs":[],"stateMutability":"payable","type":"function"},{"inputs":[{"internalType":"string","name":"description","type":"string"},{"internalType":"uint256","name":"value","type":"uint256"},{"internalType":"address","name":"recipient","type":"address"}],"name":"createRequest","outputs":[],"stateMutability":"nonpayable","type":"function"},{"inputs":[{"internalType":"uint256","name":"index","type":"uint256"}],"name":"finalizeRequest","outputs":[],"stateMutability":"nonpayable","type":"function"},{"inputs":[],"name":"manager","outputs":[{"internalType":"address","name":"","type":"address"}],"stateMutability":"view","type":"function"},{"inputs":[],"name":"minimumContribution","outputs":[{"internalType":"uint256","name":"","type":"uint256"}],"stateMutability":"view","type":"function"},{"inputs":[],"name":"numRequests","outputs":[{"internalType":"uint256","name":"","type":"uint256"}],"stateMutability":"view","type":"function"},{"inputs":[{"internalType":"uint256","name":"","type":"uint256"}],"name":"requests","outputs":[{"internalType":"string","name":"description","type":"string"},{"internalType":"uint256","name":"value","type":"uint256"},{"internalType":"address","name":"recipient","type":"address"},{"internalType":"bool","name":"complete","type":"bool"},{"internalType":"uint256","name":"approvalCount","type":"uint256"}],"stateMutability":"view","type":"function"}],"devdoc":{"kind":"dev","methods":{},"version":1},"evm":{"assembly":"    /* \"contracts\":398:2334  contract Campaign {... */\n  mstore(0x40, 0x80)\n    /* \"contracts\":945:1060  constructor(uint minimum, address creator) {... */\n  callvalue\n  dup1\n  iszero\n  tag_1\n  jumpi\n  0x00\n  dup1\n  revert\ntag_1:\n  pop\n  mload(0x40)\n  sub(codesize, bytecodeSize)\n  dup1\n  bytecodeSize\n  dup4\n  codecopy\n  dup2\n  dup2\n  add\n  0x40\n  mstore\n  dup2\n  add\n  swap1\n  tag_2\n  swap2\n  swap1\n  tag_3\n  jump\t// in\ntag_2:\n    /* \"contracts\":1007:1014  creator */\n  dup1\n    /* \"contracts\":998:1005  manager */\n  0x00\n  dup1\n    /* \"contracts\":998:1014  manager =creator */\n  0x0100\n  exp\n  dup2\n  sload\n  dup2\n  0xffffffffffffffffffffffffffffffffffffffff\n  mul\n  not\n  and\n  swap1\n  dup4\n  0xffffffffffffffffffffffffffffffffffffffff\n  and\n  mul\n  or\n  swap1\n  sstore\n  pop\n    /* \"contracts\":1046:1053  minimum */\n  dup2\n    /* \"contracts\":1024:1043  minimumContribution */\n  0x01\n    /* \"contracts\":1024:1053  minimumContribution = minimum */\n  dup2\n  swap1\n  sstore\n  pop\n    /* \"contracts\":945:1060  constructor(uint minimum, address creator) {... */\n  pop\n  pop\n    /* \"contracts\":398:2334  contract Campaign {... */\n  jump(tag_6)\n    /* \"#utility.yul\":7:150   */\ntag_8:\n    /* \"#utility.yul\":64:69   */\n  0x00\n    /* \"#utility.yul\":95:101   */\n  dup2\n    /* \"#utility.yul\":89:102   */\n  mload\n    /* \"#utility.yul\":80:102   */\n  swap1\n  pop\n    /* \"#utility.yul\":111:144   */\n  tag_10\n    /* \"#utility.yul\":138:143   */\n  dup2\n    /* \"#utility.yul\":111:144   */\n  tag_11\n  jump\t// in\ntag_10:\n    /* \"#utility.yul\":70:150   */\n  swap3\n  swap2\n  pop\n  pop\n  jump\t// out\n    /* \"#utility.yul\":156:299   */\ntag_12:\n    /* \"#utility.yul\":213:218   */\n  0x00\n    /* \"#utility.yul\":244:250   */\n  dup2\n    /* \"#utility.yul\":238:251   */\n  mload\n    /* \"#utility.yul\":229:251   */\n  swap1\n  pop\n    /* \"#utility.yul\":260:293   */\n  tag_14\n    /* \"#utility.yul\":287:292   */\n  dup2\n    /* \"#utility.yul\":260:293   */\n  tag_15\n  jump\t// in\ntag_14:\n    /* \"#utility.yul\":219:299   */\n  swap3\n  swap2\n  pop\n  pop\n  jump\t// out\n    /* \"#utility.yul\":305:745   */\ntag_3:\n    /* \"#utility.yul\":384:390   */\n  0x00\n    /* \"#utility.yul\":392:398   */\n  dup1\n    /* \"#utility.yul\":441:443   */\n  0x40\n    /* \"#utility.yul\":429:438   */\n  dup4\n    /* \"#utility.yul\":420:427   */\n  dup6\n    /* \"#utility.yul\":416:439   */\n  sub\n    /* \"#utility.yul\":412:444   */\n  slt\n    /* \"#utility.yul\":409:411   */\n  iszero\n  tag_17\n  jumpi\n    /* \"#utility.yul\":457:458   */\n  0x00\n    /* \"#utility.yul\":454:455   */\n  dup1\n    /* \"#utility.yul\":447:459   */\n  revert\n    /* \"#utility.yul\":409:411   */\ntag_17:\n    /* \"#utility.yul\":500:501   */\n  0x00\n    /* \"#utility.yul\":525:589   */\n  tag_18\n    /* \"#utility.yul\":581:588   */\n  dup6\n    /* \"#utility.yul\":572:578   */\n  dup3\n    /* \"#utility.yul\":561:570   */\n  dup7\n    /* \"#utility.yul\":557:579   */\n  add\n    /* \"#utility.yul\":525:589   */\n  tag_12\n  jump\t// in\ntag_18:\n    /* \"#utility.yul\":515:589   */\n  swap3\n  pop\n    /* \"#utility.yul\":471:599   */\n  pop\n    /* \"#utility.yul\":638:640   */\n  0x20\n    /* \"#utility.yul\":664:728   */\n  tag_19\n    /* \"#utility.yul\":720:727   */\n  dup6\n    /* \"#utility.yul\":711:717   */\n  dup3\n    /* \"#utility.yul\":700:709   */\n  dup7\n    /* \"#utility.yul\":696:718   */\n  add\n    /* \"#utility.yul\":664:728   */\n  tag_8\n  jump\t// in\ntag_19:\n    /* \"#utility.yul\":654:728   */\n  swap2\n  pop\n    /* \"#utility.yul\":609:738   */\n  pop\n    /* \"#utility.yul\":399:745   */\n  swap3\n  pop\n  swap3\n  swap1\n  pop\n  jump\t// out\n    /* \"#utility.yul\":751:847   */\ntag_20:\n    /* \"#utility.yul\":788:795   */\n  0x00\n    /* \"#utility.yul\":817:841   */\n  tag_22\n    /* \"#utility.yul\":835:840   */\n  dup3\n    /* \"#utility.yul\":817:841   */\n  tag_23\n  jump\t// in\ntag_22:\n    /* \"#utility.yul\":806:841   */\n  swap1\n  pop\n    /* \"#utility.yul\":796:847   */\n  swap2\n  swap1\n  pop\n  jump\t// out\n    /* \"#utility.yul\":853:979   */\ntag_23:\n    /* \"#utility.yul\":890:897   */\n  0x00\n    /* \"#utility.yul\":930:972   */\n  0xffffffffffffffffffffffffffffffffffffffff\n    /* \"#utility.yul\":923:928   */\n  dup3\n    /* \"#utility.yul\":919:973   */\n  and\n    /* \"#utility.yul\":908:973   */\n  swap1\n  pop\n    /* \"#utility.yul\":898:979   */\n  swap2\n  swap1\n  pop\n  jump\t// out\n    /* \"#utility.yul\":985:1062   */\ntag_25:\n    /* \"#utility.yul\":1022:1029   */\n  0x00\n    /* \"#utility.yul\":1051:1056   */\n  dup2\n    /* \"#utility.yul\":1040:1056   */\n  swap1\n  pop\n    /* \"#utility.yul\":1030:1062   */\n  swap2\n  swap1\n  pop\n  jump\t// out\n    /* \"#utility.yul\":1068:1190   */\ntag_11:\n    /* \"#utility.yul\":1141:1165   */\n  tag_28\n    /* \"#utility.yul\":1159:1164   */\n  dup2\n    /* \"#utility.yul\":1141:1165   */\n  tag_20\n  jump\t// in\ntag_28:\n    /* \"#utility.yul\":1134:1139   */\n  dup2\n    /* \"#utility.yul\":1131:1166   */\n  eq\n    /* \"#utility.yul\":1121:1123   */\n  tag_29\n  jumpi\n    /* \"#utility.yul\":1180:1181   */\n  0x00\n    /* \"#utility.yul\":1177:1178   */\n  dup1\n    /* \"#utility.yul\":1170:1182   */\n  revert\n    /* \"#utility.yul\":1121:1123   */\ntag_29:\n    /* \"#utility.yul\":1111:1190   */\n  pop\n  jump\t// out\n    /* \"#utility.yul\":1196:1318   */\ntag_15:\n    /* \"#utility.yul\":1269:1293   */\n  tag_31\n    /* \"#utility.yul\":1287:1292   */\n  dup2\n    /* \"#utility.yul\":1269:1293   */\n  tag_25\n  jump\t// in\ntag_31:\n    /* \"#utility.yul\":1262:1267   */\n  dup2\n    /* \"#utility.yul\":1259:1294   */\n  eq\n    /* \"#utility.yul\":1249:1251   */\n  tag_32\n  jumpi\n    /* \"#utility.yul\":1308:1309   */\n  0x00\n    /* \"#utility.yul\":1305:1306   */\n  dup1\n    /* \"#utility.yul\":1298:1310   */\n  revert\n    /* \"#utility.yul\":1249:1251   */\ntag_32:\n    /* \"#utility.yul\":1239:1318   */\n  pop\n  jump\t// out\n    /* \"contracts\":398:2334  contract Campaign {... */\ntag_6:\n  dataSize(sub_0)\n  dup1\n  dataOffset(sub_0)\n  0x00\n  codecopy\n  0x00\n  return\nstop\n\nsub_0: assembly {\n        /* \"contracts\":398:2334  contract Campaign {... */\n      mstore(0x40, 0x80)\n      jumpi(tag_1, lt(calldatasize, 0x04))\n      shr(0xe0, calldataload(0x00))\n      dup1\n      0x8a9cfd55\n      gt\n      tag_12\n      jumpi\n      dup1\n      0x8a9cfd55\n      eq\n      tag_7\n      jumpi\n      dup1\n      0x937e09b1\n      eq\n      tag_8\n      jumpi\n      dup1\n      0x9fb42b1f\n      eq\n      tag_9\n      jumpi\n      dup1\n      0xd7bb99ba\n      eq\n      tag_10\n      jumpi\n      dup1\n      0xd7d1bbdb\n      eq\n      tag_11\n      jumpi\n      jump(tag_1)\n    tag_12:\n      dup1\n      0x03441006\n      eq\n      tag_2\n      jumpi\n      dup1\n      0x0a144391\n      eq\n      tag_3\n      jumpi\n      dup1\n      0x481c6a75\n      eq\n      tag_4\n      jumpi\n      dup1\n      0x81d12c58\n      eq\n      tag_5\n      jumpi\n      dup1\n      0x82fde093\n      eq\n      tag_6\n      jumpi\n    tag_1:\n      0x00\n      dup1\n      revert\n        /* \"contracts\":1897:2332  function finalizeRequest(uint index) public restricted {... */\n    tag_2:\n      callvalue\n      dup1\n      iszero\n      tag_13\n      jumpi\n      0x00\n      dup1\n      revert\n    tag_13:\n      pop\n      tag_14\n      0x04\n      dup1\n      calldatasize\n      sub\n      dup2\n      add\n      swap1\n      tag_15\n      swap2\n      swap1\n      tag_16\n      jump\t// in\n    tag_15:\n      tag_17\n      jump\t// in\n    tag_14:\n      stop\n        /* \"contracts\":690:731  mapping(address => bool) public approvers */\n    tag_3:\n      callvalue\n      dup1\n      iszero\n      tag_18\n      jumpi\n      0x00\n      dup1\n      revert\n    tag_18:\n      pop\n      tag_19\n      0x04\n      dup1\n      calldatasize\n      sub\n      dup2\n      add\n      swap1\n      tag_20\n      swap2\n      swap1\n      tag_21\n      jump\t// in\n    tag_20:\n      tag_22\n      jump\t// in\n    tag_19:\n      mload(0x40)\n      tag_23\n      swap2\n      swap1\n      tag_24\n      jump\t// in\n    tag_23:\n      mload(0x40)\n      dup1\n      swap2\n      sub\n      swap1\n      return\n        /* \"contracts\":624:646  address public manager */\n    tag_4:\n      callvalue\n      dup1\n      iszero\n      tag_25\n      jumpi\n      0x00\n      dup1\n      revert\n    tag_25:\n      pop\n      tag_26\n      tag_27\n      jump\t// in\n    tag_26:\n      mload(0x40)\n      tag_28\n      swap2\n      swap1\n      tag_29\n      jump\t// in\n    tag_28:\n      mload(0x40)\n      dup1\n      swap2\n      sub\n      swap1\n      return\n        /* \"contracts\":803:844  mapping (uint => Request) public requests */\n    tag_5:\n      callvalue\n      dup1\n      iszero\n      tag_30\n      jumpi\n      0x00\n      dup1\n      revert\n    tag_30:\n      pop\n      tag_31\n      0x04\n      dup1\n      calldatasize\n      sub\n      dup2\n      add\n      swap1\n      tag_32\n      swap2\n      swap1\n      tag_16\n      jump\t// in\n    tag_32:\n      tag_33\n      jump\t// in\n    tag_31:\n      mload(0x40)\n      tag_34\n      swap6\n      swap5\n      swap4\n      swap3\n      swap2\n      swap1\n      tag_35\n      jump\t// in\n    tag_34:\n      mload(0x40)\n      dup1\n      swap2\n      sub\n      swap1\n      return\n        /* \"contracts\":737:763  uint public approversCount */\n    tag_6:\n      callvalue\n      dup1\n      iszero\n      tag_36\n      jumpi\n      0x00\n      dup1\n      revert\n    tag_36:\n      pop\n      tag_37\n      tag_38\n      jump\t// in\n    tag_37:\n      mload(0x40)\n      tag_39\n      swap2\n      swap1\n      tag_40\n      jump\t// in\n    tag_39:\n      mload(0x40)\n      dup1\n      swap2\n      sub\n      swap1\n      return\n        /* \"contracts\":1239:1596  function createRequest(string calldata description, uint value, address recipient)  ... */\n    tag_7:\n      callvalue\n      dup1\n      iszero\n      tag_41\n      jumpi\n      0x00\n      dup1\n      revert\n    tag_41:\n      pop\n      tag_42\n      0x04\n      dup1\n      calldatasize\n      sub\n      dup2\n      add\n      swap1\n      tag_43\n      swap2\n      swap1\n      tag_44\n      jump\t// in\n    tag_43:\n      tag_45\n      jump\t// in\n    tag_42:\n      stop\n        /* \"contracts\":652:684  uint  public minimumContribution */\n    tag_8:\n      callvalue\n      dup1\n      iszero\n      tag_46\n      jumpi\n      0x00\n      dup1\n      revert\n    tag_46:\n      pop\n      tag_47\n      tag_48\n      jump\t// in\n    tag_47:\n      mload(0x40)\n      tag_49\n      swap2\n      swap1\n      tag_40\n      jump\t// in\n    tag_49:\n      mload(0x40)\n      dup1\n      swap2\n      sub\n      swap1\n      return\n        /* \"contracts\":774:797  uint public numRequests */\n    tag_9:\n      callvalue\n      dup1\n      iszero\n      tag_50\n      jumpi\n      0x00\n      dup1\n      revert\n    tag_50:\n      pop\n      tag_51\n      tag_52\n      jump\t// in\n    tag_51:\n      mload(0x40)\n      tag_53\n      swap2\n      swap1\n      tag_40\n      jump\t// in\n    tag_53:\n      mload(0x40)\n      dup1\n      swap2\n      sub\n      swap1\n      return\n        /* \"contracts\":1070:1229  function contribute() public payable  {... */\n    tag_10:\n      tag_54\n      tag_55\n      jump\t// in\n    tag_54:\n      stop\n        /* \"contracts\":1606:1887  function approveRequest(uint index) public {... */\n    tag_11:\n      callvalue\n      dup1\n      iszero\n      tag_56\n      jumpi\n      0x00\n      dup1\n      revert\n    tag_56:\n      pop\n      tag_57\n      0x04\n      dup1\n      calldatasize\n      sub\n      dup2\n      add\n      swap1\n      tag_58\n      swap2\n      swap1\n      tag_16\n      jump\t// in\n    tag_58:\n      tag_59\n      jump\t// in\n    tag_57:\n      stop\n        /* \"contracts\":1897:2332  function finalizeRequest(uint index) public restricted {... */\n    tag_17:\n        /* \"contracts\":909:916  manager */\n      0x00\n      dup1\n      sload\n      swap1\n      0x0100\n      exp\n      swap1\n      div\n      0xffffffffffffffffffffffffffffffffffffffff\n      and\n        /* \"contracts\":895:916  msg.sender == manager */\n      0xffffffffffffffffffffffffffffffffffffffff\n      and\n        /* \"contracts\":895:905  msg.sender */\n      caller\n        /* \"contracts\":895:916  msg.sender == manager */\n      0xffffffffffffffffffffffffffffffffffffffff\n      and\n      eq\n        /* \"contracts\":887:917  require(msg.sender == manager) */\n      tag_61\n      jumpi\n      0x00\n      dup1\n      revert\n    tag_61:\n        /* \"contracts\":1962:1985  Request storage request */\n      0x00\n        /* \"contracts\":1988:1996  requests */\n      0x05\n        /* \"contracts\":1988:2003  requests[index] */\n      0x00\n        /* \"contracts\":1997:2002  index */\n      dup4\n        /* \"contracts\":1988:2003  requests[index] */\n      dup2\n      mstore\n      0x20\n      add\n      swap1\n      dup2\n      mstore\n      0x20\n      add\n      0x00\n      keccak256\n        /* \"contracts\":1962:2003  Request storage request = requests[index] */\n      swap1\n      pop\n        /* \"contracts\":2026:2031  index */\n      dup2\n        /* \"contracts\":2021:2022  0 */\n      0x00\n        /* \"contracts\":2021:2031  0 <= index */\n      gt\n      iszero\n        /* \"contracts\":2013:2032  require(0 <= index) */\n      tag_63\n      jumpi\n      0x00\n      dup1\n      revert\n    tag_63:\n        /* \"contracts\":2058:2069  numRequests */\n      sload(0x04)\n        /* \"contracts\":2050:2055  index */\n      dup3\n        /* \"contracts\":2050:2069  index < numRequests */\n      lt\n        /* \"contracts\":2042:2070  require(index < numRequests) */\n      tag_64\n      jumpi\n      0x00\n      dup1\n      revert\n    tag_64:\n        /* \"contracts\":2089:2096  request */\n      dup1\n        /* \"contracts\":2089:2105  request.complete */\n      0x02\n      add\n      0x14\n      swap1\n      sload\n      swap1\n      0x0100\n      exp\n      swap1\n      div\n      0xff\n      and\n        /* \"contracts\":2088:2105  !request.complete */\n      iszero\n        /* \"contracts\":2080:2106  require(!request.complete) */\n      tag_65\n      jumpi\n      0x00\n      dup1\n      revert\n    tag_65:\n        /* \"contracts\":2164:2165  2 */\n      0x02\n        /* \"contracts\":2149:2163  approversCount */\n      sload(0x03)\n        /* \"contracts\":2149:2165  approversCount/2 */\n      tag_66\n      swap2\n      swap1\n      tag_67\n      jump\t// in\n    tag_66:\n        /* \"contracts\":2124:2131  request */\n      dup2\n        /* \"contracts\":2124:2145  request.approvalCount */\n      0x03\n      add\n      sload\n        /* \"contracts\":2124:2166  request.approvalCount > (approversCount/2) */\n      gt\n        /* \"contracts\":2116:2167  require(request.approvalCount > (approversCount/2)) */\n      tag_68\n      jumpi\n      0x00\n      dup1\n      revert\n    tag_68:\n        /* \"contracts\":2186:2211  address payable recipient */\n      0x00\n        /* \"contracts\":2222:2229  request */\n      dup2\n        /* \"contracts\":2222:2239  request.recipient */\n      0x02\n      add\n      0x00\n      swap1\n      sload\n      swap1\n      0x0100\n      exp\n      swap1\n      div\n      0xffffffffffffffffffffffffffffffffffffffff\n      and\n        /* \"contracts\":2186:2240  address payable recipient = payable(request.recipient) */\n      swap1\n      pop\n        /* \"contracts\":2250:2259  recipient */\n      dup1\n        /* \"contracts\":2250:2268  recipient.transfer */\n      0xffffffffffffffffffffffffffffffffffffffff\n      and\n        /* \"contracts\":2250:2283  recipient.transfer(request.value) */\n      0x08fc\n        /* \"contracts\":2269:2276  request */\n      dup4\n        /* \"contracts\":2269:2282  request.value */\n      0x01\n      add\n      sload\n        /* \"contracts\":2250:2283  recipient.transfer(request.value) */\n      swap1\n      dup2\n      iszero\n      mul\n      swap1\n      mload(0x40)\n      0x00\n      mload(0x40)\n      dup1\n      dup4\n      sub\n      dup2\n      dup6\n      dup9\n      dup9\n      call\n      swap4\n      pop\n      pop\n      pop\n      pop\n      iszero\n      dup1\n      iszero\n      tag_70\n      jumpi\n      returndatasize\n      0x00\n      dup1\n      returndatacopy\n      revert(0x00, returndatasize)\n    tag_70:\n      pop\n        /* \"contracts\":2312:2316  true */\n      0x01\n        /* \"contracts\":2293:2300  request */\n      dup3\n        /* \"contracts\":2293:2309  request.complete */\n      0x02\n      add\n      0x14\n        /* \"contracts\":2293:2316  request.complete = true */\n      0x0100\n      exp\n      dup2\n      sload\n      dup2\n      0xff\n      mul\n      not\n      and\n      swap1\n      dup4\n      iszero\n      iszero\n      mul\n      or\n      swap1\n      sstore\n      pop\n        /* \"contracts\":927:928  _ */\n      pop\n      pop\n        /* \"contracts\":1897:2332  function finalizeRequest(uint index) public restricted {... */\n      pop\n      jump\t// out\n        /* \"contracts\":690:731  mapping(address => bool) public approvers */\n    tag_22:\n      mstore(0x20, 0x02)\n      dup1\n      0x00\n      mstore\n      keccak256(0x00, 0x40)\n      0x00\n      swap2\n      pop\n      sload\n      swap1\n      0x0100\n      exp\n      swap1\n      div\n      0xff\n      and\n      dup2\n      jump\t// out\n        /* \"contracts\":624:646  address public manager */\n    tag_27:\n      0x00\n      dup1\n      sload\n      swap1\n      0x0100\n      exp\n      swap1\n      div\n      0xffffffffffffffffffffffffffffffffffffffff\n      and\n      dup2\n      jump\t// out\n        /* \"contracts\":803:844  mapping (uint => Request) public requests */\n    tag_33:\n      mstore(0x20, 0x05)\n      dup1\n      0x00\n      mstore\n      keccak256(0x00, 0x40)\n      0x00\n      swap2\n      pop\n      swap1\n      pop\n      dup1\n      0x00\n      add\n      dup1\n      sload\n      tag_71\n      swap1\n      tag_72\n      jump\t// in\n    tag_71:\n      dup1\n      0x1f\n      add\n      0x20\n      dup1\n      swap2\n      div\n      mul\n      0x20\n      add\n      mload(0x40)\n      swap1\n      dup2\n      add\n      0x40\n      mstore\n      dup1\n      swap3\n      swap2\n      swap1\n      dup2\n      dup2\n      mstore\n      0x20\n      add\n      dup3\n      dup1\n      sload\n      tag_73\n      swap1\n      tag_72\n      jump\t// in\n    tag_73:\n      dup1\n      iszero\n      tag_74\n      jumpi\n      dup1\n      0x1f\n      lt\n      tag_75\n      jumpi\n      0x0100\n      dup1\n      dup4\n      sload\n      div\n      mul\n      dup4\n      mstore\n      swap2\n      0x20\n      add\n      swap2\n      jump(tag_74)\n    tag_75:\n      dup3\n      add\n      swap2\n      swap1\n      0x00\n      mstore\n      keccak256(0x00, 0x20)\n      swap1\n    tag_76:\n      dup2\n      sload\n      dup2\n      mstore\n      swap1\n      0x01\n      add\n      swap1\n      0x20\n      add\n      dup1\n      dup4\n      gt\n      tag_76\n      jumpi\n      dup3\n      swap1\n      sub\n      0x1f\n      and\n      dup3\n      add\n      swap2\n    tag_74:\n      pop\n      pop\n      pop\n      pop\n      pop\n      swap1\n      dup1\n      0x01\n      add\n      sload\n      swap1\n      dup1\n      0x02\n      add\n      0x00\n      swap1\n      sload\n      swap1\n      0x0100\n      exp\n      swap1\n      div\n      0xffffffffffffffffffffffffffffffffffffffff\n      and\n      swap1\n      dup1\n      0x02\n      add\n      0x14\n      swap1\n      sload\n      swap1\n      0x0100\n      exp\n      swap1\n      div\n      0xff\n      and\n      swap1\n      dup1\n      0x03\n      add\n      sload\n      swap1\n      pop\n      dup6\n      jump\t// out\n        /* \"contracts\":737:763  uint public approversCount */\n    tag_38:\n      sload(0x03)\n      dup2\n      jump\t// out\n        /* \"contracts\":1239:1596  function createRequest(string calldata description, uint value, address recipient)  ... */\n    tag_45:\n        /* \"contracts\":909:916  manager */\n      0x00\n      dup1\n      sload\n      swap1\n      0x0100\n      exp\n      swap1\n      div\n      0xffffffffffffffffffffffffffffffffffffffff\n      and\n        /* \"contracts\":895:916  msg.sender == manager */\n      0xffffffffffffffffffffffffffffffffffffffff\n      and\n        /* \"contracts\":895:905  msg.sender */\n      caller\n        /* \"contracts\":895:916  msg.sender == manager */\n      0xffffffffffffffffffffffffffffffffffffffff\n      and\n      eq\n        /* \"contracts\":887:917  require(msg.sender == manager) */\n      tag_78\n      jumpi\n      0x00\n      dup1\n      revert\n    tag_78:\n        /* \"contracts\":1358:1372  uint requestId */\n      0x00\n        /* \"contracts\":1375:1386  numRequests */\n      0x04\n      0x00\n        /* \"contracts\":1375:1388  numRequests++ */\n      dup2\n      sload\n      dup1\n      swap3\n      swap2\n      swap1\n      tag_80\n      swap1\n      tag_81\n      jump\t// in\n    tag_80:\n      swap2\n      swap1\n      pop\n      sstore\n        /* \"contracts\":1358:1388  uint requestId = numRequests++ */\n      swap1\n      pop\n        /* \"contracts\":1398:1415  Request storage r */\n      0x00\n        /* \"contracts\":1418:1426  requests */\n      0x05\n        /* \"contracts\":1418:1437  requests[requestId] */\n      0x00\n        /* \"contracts\":1427:1436  requestId */\n      dup4\n        /* \"contracts\":1418:1437  requests[requestId] */\n      dup2\n      mstore\n      0x20\n      add\n      swap1\n      dup2\n      mstore\n      0x20\n      add\n      0x00\n      keccak256\n        /* \"contracts\":1398:1437  Request storage r = requests[requestId] */\n      swap1\n      pop\n        /* \"contracts\":1463:1474  description */\n      dup6\n      dup6\n        /* \"contracts\":1447:1448  r */\n      dup3\n        /* \"contracts\":1447:1460  r.description */\n      0x00\n      add\n        /* \"contracts\":1447:1474  r.description = description */\n      swap2\n      swap1\n      tag_82\n      swap3\n      swap2\n      swap1\n      tag_83\n      jump\t// in\n    tag_82:\n      pop\n        /* \"contracts\":1494:1499  value */\n      dup4\n        /* \"contracts\":1484:1485  r */\n      dup2\n        /* \"contracts\":1484:1491  r.value */\n      0x01\n      add\n        /* \"contracts\":1484:1499  r.value = value */\n      dup2\n      swap1\n      sstore\n      pop\n        /* \"contracts\":1523:1532  recipient */\n      dup3\n        /* \"contracts\":1509:1510  r */\n      dup2\n        /* \"contracts\":1509:1520  r.recipient */\n      0x02\n      add\n      0x00\n        /* \"contracts\":1509:1532  r.recipient = recipient */\n      0x0100\n      exp\n      dup2\n      sload\n      dup2\n      0xffffffffffffffffffffffffffffffffffffffff\n      mul\n      not\n      and\n      swap1\n      dup4\n      0xffffffffffffffffffffffffffffffffffffffff\n      and\n      mul\n      or\n      swap1\n      sstore\n      pop\n        /* \"contracts\":1555:1560  false */\n      0x00\n        /* \"contracts\":1542:1543  r */\n      dup2\n        /* \"contracts\":1542:1552  r.complete */\n      0x02\n      add\n      0x14\n        /* \"contracts\":1542:1560  r.complete = false */\n      0x0100\n      exp\n      dup2\n      sload\n      dup2\n      0xff\n      mul\n      not\n      and\n      swap1\n      dup4\n      iszero\n      iszero\n      mul\n      or\n      swap1\n      sstore\n      pop\n        /* \"contracts\":1588:1589  0 */\n      0x00\n        /* \"contracts\":1570:1571  r */\n      dup2\n        /* \"contracts\":1570:1585  r.approvalCount */\n      0x03\n      add\n        /* \"contracts\":1570:1589  r.approvalCount = 0 */\n      dup2\n      swap1\n      sstore\n      pop\n        /* \"contracts\":927:928  _ */\n      pop\n      pop\n        /* \"contracts\":1239:1596  function createRequest(string calldata description, uint value, address recipient)  ... */\n      pop\n      pop\n      pop\n      pop\n      jump\t// out\n        /* \"contracts\":652:684  uint  public minimumContribution */\n    tag_48:\n      sload(0x01)\n      dup2\n      jump\t// out\n        /* \"contracts\":774:797  uint public numRequests */\n    tag_52:\n      sload(0x04)\n      dup2\n      jump\t// out\n        /* \"contracts\":1070:1229  function contribute() public payable  {... */\n    tag_55:\n        /* \"contracts\":1138:1157  minimumContribution */\n      sload(0x01)\n        /* \"contracts\":1126:1135  msg.value */\n      callvalue\n        /* \"contracts\":1126:1157  msg.value > minimumContribution */\n      gt\n        /* \"contracts\":1118:1158  require(msg.value > minimumContribution) */\n      tag_85\n      jumpi\n      0x00\n      dup1\n      revert\n    tag_85:\n        /* \"contracts\":1192:1196  true */\n      0x01\n        /* \"contracts\":1168:1177  approvers */\n      0x02\n        /* \"contracts\":1168:1189  approvers[msg.sender] */\n      0x00\n        /* \"contracts\":1178:1188  msg.sender */\n      caller\n        /* \"contracts\":1168:1189  approvers[msg.sender] */\n      0xffffffffffffffffffffffffffffffffffffffff\n      and\n      0xffffffffffffffffffffffffffffffffffffffff\n      and\n      dup2\n      mstore\n      0x20\n      add\n      swap1\n      dup2\n      mstore\n      0x20\n      add\n      0x00\n      keccak256\n      0x00\n        /* \"contracts\":1168:1196  approvers[msg.sender] = true */\n      0x0100\n      exp\n      dup2\n      sload\n      dup2\n      0xff\n      mul\n      not\n      and\n      swap1\n      dup4\n      iszero\n      iszero\n      mul\n      or\n      swap1\n      sstore\n      pop\n        /* \"contracts\":1206:1220  approversCount */\n      0x03\n      0x00\n        /* \"contracts\":1206:1222  approversCount++ */\n      dup2\n      sload\n      dup1\n      swap3\n      swap2\n      swap1\n      tag_86\n      swap1\n      tag_81\n      jump\t// in\n    tag_86:\n      swap2\n      swap1\n      pop\n      sstore\n      pop\n        /* \"contracts\":1070:1229  function contribute() public payable  {... */\n      jump\t// out\n        /* \"contracts\":1606:1887  function approveRequest(uint index) public {... */\n    tag_59:\n        /* \"contracts\":1659:1682  Request storage request */\n      0x00\n        /* \"contracts\":1685:1693  requests */\n      0x05\n        /* \"contracts\":1685:1700  requests[index] */\n      0x00\n        /* \"contracts\":1694:1699  index */\n      dup4\n        /* \"contracts\":1685:1700  requests[index] */\n      dup2\n      mstore\n      0x20\n      add\n      swap1\n      dup2\n      mstore\n      0x20\n      add\n      0x00\n      keccak256\n        /* \"contracts\":1659:1700  Request storage request = requests[index] */\n      swap1\n      pop\n        /* \"contracts\":1727:1736  approvers */\n      0x02\n        /* \"contracts\":1727:1748  approvers[msg.sender] */\n      0x00\n        /* \"contracts\":1737:1747  msg.sender */\n      caller\n        /* \"contracts\":1727:1748  approvers[msg.sender] */\n      0xffffffffffffffffffffffffffffffffffffffff\n      and\n      0xffffffffffffffffffffffffffffffffffffffff\n      and\n      dup2\n      mstore\n      0x20\n      add\n      swap1\n      dup2\n      mstore\n      0x20\n      add\n      0x00\n      keccak256\n      0x00\n      swap1\n      sload\n      swap1\n      0x0100\n      exp\n      swap1\n      div\n      0xff\n      and\n        /* \"contracts\":1719:1749  require(approvers[msg.sender]) */\n      tag_88\n      jumpi\n      0x00\n      dup1\n      revert\n    tag_88:\n        /* \"contracts\":1768:1775  request */\n      dup1\n        /* \"contracts\":1768:1782  request.voters */\n      0x04\n      add\n        /* \"contracts\":1768:1794  request.voters[msg.sender] */\n      0x00\n        /* \"contracts\":1783:1793  msg.sender */\n      caller\n        /* \"contracts\":1768:1794  request.voters[msg.sender] */\n      0xffffffffffffffffffffffffffffffffffffffff\n      and\n      0xffffffffffffffffffffffffffffffffffffffff\n      and\n      dup2\n      mstore\n      0x20\n      add\n      swap1\n      dup2\n      mstore\n      0x20\n      add\n      0x00\n      keccak256\n      0x00\n      swap1\n      sload\n      swap1\n      0x0100\n      exp\n      swap1\n      div\n      0xff\n      and\n        /* \"contracts\":1767:1794  !request.voters[msg.sender] */\n      iszero\n        /* \"contracts\":1759:1795  require(!request.voters[msg.sender]) */\n      tag_89\n      jumpi\n      0x00\n      dup1\n      revert\n    tag_89:\n        /* \"contracts\":1843:1847  true */\n      0x01\n        /* \"contracts\":1814:1821  request */\n      dup2\n        /* \"contracts\":1814:1828  request.voters */\n      0x04\n      add\n        /* \"contracts\":1814:1840  request.voters[msg.sender] */\n      0x00\n        /* \"contracts\":1829:1839  msg.sender */\n      caller\n        /* \"contracts\":1814:1840  request.voters[msg.sender] */\n      0xffffffffffffffffffffffffffffffffffffffff\n      and\n      0xffffffffffffffffffffffffffffffffffffffff\n      and\n      dup2\n      mstore\n      0x20\n      add\n      swap1\n      dup2\n      mstore\n      0x20\n      add\n      0x00\n      keccak256\n      0x00\n        /* \"contracts\":1814:1847  request.voters[msg.sender] = true */\n      0x0100\n      exp\n      dup2\n      sload\n      dup2\n      0xff\n      mul\n      not\n      and\n      swap1\n      dup4\n      iszero\n      iszero\n      mul\n      or\n      swap1\n      sstore\n      pop\n        /* \"contracts\":1857:1864  request */\n      dup1\n        /* \"contracts\":1857:1878  request.approvalCount */\n      0x03\n      add\n      0x00\n        /* \"contracts\":1857:1880  request.approvalCount++ */\n      dup2\n      sload\n      dup1\n      swap3\n      swap2\n      swap1\n      tag_90\n      swap1\n      tag_81\n      jump\t// in\n    tag_90:\n      swap2\n      swap1\n      pop\n      sstore\n      pop\n        /* \"contracts\":1606:1887  function approveRequest(uint index) public {... */\n      pop\n      pop\n      jump\t// out\n    tag_83:\n      dup3\n      dup1\n      sload\n      tag_91\n      swap1\n      tag_72\n      jump\t// in\n    tag_91:\n      swap1\n      0x00\n      mstore\n      keccak256(0x00, 0x20)\n      swap1\n      0x1f\n      add\n      0x20\n      swap1\n      div\n      dup2\n      add\n      swap3\n      dup3\n      tag_93\n      jumpi\n      0x00\n      dup6\n      sstore\n      jump(tag_92)\n    tag_93:\n      dup3\n      0x1f\n      lt\n      tag_94\n      jumpi\n      dup1\n      calldataload\n      not(0xff)\n      and\n      dup4\n      dup1\n      add\n      or\n      dup6\n      sstore\n      jump(tag_92)\n    tag_94:\n      dup3\n      dup1\n      add\n      0x01\n      add\n      dup6\n      sstore\n      dup3\n      iszero\n      tag_92\n      jumpi\n      swap2\n      dup3\n      add\n    tag_95:\n      dup3\n      dup2\n      gt\n      iszero\n      tag_96\n      jumpi\n      dup3\n      calldataload\n      dup3\n      sstore\n      swap2\n      0x20\n      add\n      swap2\n      swap1\n      0x01\n      add\n      swap1\n      jump(tag_95)\n    tag_96:\n    tag_92:\n      pop\n      swap1\n      pop\n      tag_97\n      swap2\n      swap1\n      tag_98\n      jump\t// in\n    tag_97:\n      pop\n      swap1\n      jump\t// out\n    tag_98:\n    tag_99:\n      dup1\n      dup3\n      gt\n      iszero\n      tag_100\n      jumpi\n      0x00\n      dup2\n      0x00\n      swap1\n      sstore\n      pop\n      0x01\n      add\n      jump(tag_99)\n    tag_100:\n      pop\n      swap1\n      jump\t// out\n        /* \"#utility.yul\":7:146   */\n    tag_102:\n        /* \"#utility.yul\":53:58   */\n      0x00\n        /* \"#utility.yul\":91:97   */\n      dup2\n        /* \"#utility.yul\":78:98   */\n      calldataload\n        /* \"#utility.yul\":69:98   */\n      swap1\n      pop\n        /* \"#utility.yul\":107:140   */\n      tag_104\n        /* \"#utility.yul\":134:139   */\n      dup2\n        /* \"#utility.yul\":107:140   */\n      tag_105\n      jump\t// in\n    tag_104:\n        /* \"#utility.yul\":59:146   */\n      swap3\n      swap2\n      pop\n      pop\n      jump\t// out\n        /* \"#utility.yul\":166:518   */\n    tag_106:\n        /* \"#utility.yul\":224:232   */\n      0x00\n        /* \"#utility.yul\":234:240   */\n      dup1\n        /* \"#utility.yul\":284:287   */\n      dup4\n        /* \"#utility.yul\":277:281   */\n      0x1f\n        /* \"#utility.yul\":269:275   */\n      dup5\n        /* \"#utility.yul\":265:282   */\n      add\n        /* \"#utility.yul\":261:288   */\n      slt\n        /* \"#utility.yul\":251:253   */\n      tag_108\n      jumpi\n        /* \"#utility.yul\":302:303   */\n      0x00\n        /* \"#utility.yul\":299:300   */\n      dup1\n        /* \"#utility.yul\":292:304   */\n      revert\n        /* \"#utility.yul\":251:253   */\n    tag_108:\n        /* \"#utility.yul\":338:344   */\n      dup3\n        /* \"#utility.yul\":325:345   */\n      calldataload\n        /* \"#utility.yul\":315:345   */\n      swap1\n      pop\n        /* \"#utility.yul\":368:386   */\n      0xffffffffffffffff\n        /* \"#utility.yul\":360:366   */\n      dup2\n        /* \"#utility.yul\":357:387   */\n      gt\n        /* \"#utility.yul\":354:356   */\n      iszero\n      tag_109\n      jumpi\n        /* \"#utility.yul\":400:401   */\n      0x00\n        /* \"#utility.yul\":397:398   */\n      dup1\n        /* \"#utility.yul\":390:402   */\n      revert\n        /* \"#utility.yul\":354:356   */\n    tag_109:\n        /* \"#utility.yul\":437:441   */\n      0x20\n        /* \"#utility.yul\":429:435   */\n      dup4\n        /* \"#utility.yul\":425:442   */\n      add\n        /* \"#utility.yul\":413:442   */\n      swap2\n      pop\n        /* \"#utility.yul\":491:494   */\n      dup4\n        /* \"#utility.yul\":483:487   */\n      0x01\n        /* \"#utility.yul\":475:481   */\n      dup3\n        /* \"#utility.yul\":471:488   */\n      mul\n        /* \"#utility.yul\":461:469   */\n      dup4\n        /* \"#utility.yul\":457:489   */\n      add\n        /* \"#utility.yul\":454:495   */\n      gt\n        /* \"#utility.yul\":451:453   */\n      iszero\n      tag_110\n      jumpi\n        /* \"#utility.yul\":508:509   */\n      0x00\n        /* \"#utility.yul\":505:506   */\n      dup1\n        /* \"#utility.yul\":498:510   */\n      revert\n        /* \"#utility.yul\":451:453   */\n    tag_110:\n        /* \"#utility.yul\":241:518   */\n      swap3\n      pop\n      swap3\n      swap1\n      pop\n      jump\t// out\n        /* \"#utility.yul\":524:663   */\n    tag_111:\n        /* \"#utility.yul\":570:575   */\n      0x00\n        /* \"#utility.yul\":608:614   */\n      dup2\n        /* \"#utility.yul\":595:615   */\n      calldataload\n        /* \"#utility.yul\":586:615   */\n      swap1\n      pop\n        /* \"#utility.yul\":624:657   */\n      tag_113\n        /* \"#utility.yul\":651:656   */\n      dup2\n        /* \"#utility.yul\":624:657   */\n      tag_114\n      jump\t// in\n    tag_113:\n        /* \"#utility.yul\":576:663   */\n      swap3\n      swap2\n      pop\n      pop\n      jump\t// out\n        /* \"#utility.yul\":669:931   */\n    tag_21:\n        /* \"#utility.yul\":728:734   */\n      0x00\n        /* \"#utility.yul\":777:779   */\n      0x20\n        /* \"#utility.yul\":765:774   */\n      dup3\n        /* \"#utility.yul\":756:763   */\n      dup5\n        /* \"#utility.yul\":752:775   */\n      sub\n        /* \"#utility.yul\":748:780   */\n      slt\n        /* \"#utility.yul\":745:747   */\n      iszero\n      tag_116\n      jumpi\n        /* \"#utility.yul\":793:794   */\n      0x00\n        /* \"#utility.yul\":790:791   */\n      dup1\n        /* \"#utility.yul\":783:795   */\n      revert\n        /* \"#utility.yul\":745:747   */\n    tag_116:\n        /* \"#utility.yul\":836:837   */\n      0x00\n        /* \"#utility.yul\":861:914   */\n      tag_117\n        /* \"#utility.yul\":906:913   */\n      dup5\n        /* \"#utility.yul\":897:903   */\n      dup3\n        /* \"#utility.yul\":886:895   */\n      dup6\n        /* \"#utility.yul\":882:904   */\n      add\n        /* \"#utility.yul\":861:914   */\n      tag_102\n      jump\t// in\n    tag_117:\n        /* \"#utility.yul\":851:914   */\n      swap2\n      pop\n        /* \"#utility.yul\":807:924   */\n      pop\n        /* \"#utility.yul\":735:931   */\n      swap3\n      swap2\n      pop\n      pop\n      jump\t// out\n        /* \"#utility.yul\":937:1622   */\n    tag_44:\n        /* \"#utility.yul\":1026:1032   */\n      0x00\n        /* \"#utility.yul\":1034:1040   */\n      dup1\n        /* \"#utility.yul\":1042:1048   */\n      0x00\n        /* \"#utility.yul\":1050:1056   */\n      dup1\n        /* \"#utility.yul\":1099:1101   */\n      0x60\n        /* \"#utility.yul\":1087:1096   */\n      dup6\n        /* \"#utility.yul\":1078:1085   */\n      dup8\n        /* \"#utility.yul\":1074:1097   */\n      sub\n        /* \"#utility.yul\":1070:1102   */\n      slt\n        /* \"#utility.yul\":1067:1069   */\n      iszero\n      tag_119\n      jumpi\n        /* \"#utility.yul\":1115:1116   */\n      0x00\n        /* \"#utility.yul\":1112:1113   */\n      dup1\n        /* \"#utility.yul\":1105:1117   */\n      revert\n        /* \"#utility.yul\":1067:1069   */\n    tag_119:\n        /* \"#utility.yul\":1186:1187   */\n      0x00\n        /* \"#utility.yul\":1175:1184   */\n      dup6\n        /* \"#utility.yul\":1171:1188   */\n      add\n        /* \"#utility.yul\":1158:1189   */\n      calldataload\n        /* \"#utility.yul\":1216:1234   */\n      0xffffffffffffffff\n        /* \"#utility.yul\":1208:1214   */\n      dup2\n        /* \"#utility.yul\":1205:1235   */\n      gt\n        /* \"#utility.yul\":1202:1204   */\n      iszero\n      tag_120\n      jumpi\n        /* \"#utility.yul\":1248:1249   */\n      0x00\n        /* \"#utility.yul\":1245:1246   */\n      dup1\n        /* \"#utility.yul\":1238:1250   */\n      revert\n        /* \"#utility.yul\":1202:1204   */\n    tag_120:\n        /* \"#utility.yul\":1284:1349   */\n      tag_121\n        /* \"#utility.yul\":1341:1348   */\n      dup8\n        /* \"#utility.yul\":1332:1338   */\n      dup3\n        /* \"#utility.yul\":1321:1330   */\n      dup9\n        /* \"#utility.yul\":1317:1339   */\n      add\n        /* \"#utility.yul\":1284:1349   */\n      tag_106\n      jump\t// in\n    tag_121:\n        /* \"#utility.yul\":1266:1349   */\n      swap5\n      pop\n      swap5\n      pop\n        /* \"#utility.yul\":1129:1359   */\n      pop\n        /* \"#utility.yul\":1398:1400   */\n      0x20\n        /* \"#utility.yul\":1424:1477   */\n      tag_122\n        /* \"#utility.yul\":1469:1476   */\n      dup8\n        /* \"#utility.yul\":1460:1466   */\n      dup3\n        /* \"#utility.yul\":1449:1458   */\n      dup9\n        /* \"#utility.yul\":1445:1467   */\n      add\n        /* \"#utility.yul\":1424:1477   */\n      tag_111\n      jump\t// in\n    tag_122:\n        /* \"#utility.yul\":1414:1477   */\n      swap3\n      pop\n        /* \"#utility.yul\":1369:1487   */\n      pop\n        /* \"#utility.yul\":1526:1528   */\n      0x40\n        /* \"#utility.yul\":1552:1605   */\n      tag_123\n        /* \"#utility.yul\":1597:1604   */\n      dup8\n        /* \"#utility.yul\":1588:1594   */\n      dup3\n        /* \"#utility.yul\":1577:1586   */\n      dup9\n        /* \"#utility.yul\":1573:1595   */\n      add\n        /* \"#utility.yul\":1552:1605   */\n      tag_102\n      jump\t// in\n    tag_123:\n        /* \"#utility.yul\":1542:1605   */\n      swap2\n      pop\n        /* \"#utility.yul\":1497:1615   */\n      pop\n        /* \"#utility.yul\":1057:1622   */\n      swap3\n      swap6\n      swap2\n      swap5\n      pop\n      swap3\n      pop\n      jump\t// out\n        /* \"#utility.yul\":1628:1890   */\n    tag_16:\n        /* \"#utility.yul\":1687:1693   */\n      0x00\n        /* \"#utility.yul\":1736:1738   */\n      0x20\n        /* \"#utility.yul\":1724:1733   */\n      dup3\n        /* \"#utility.yul\":1715:1722   */\n      dup5\n        /* \"#utility.yul\":1711:1734   */\n      sub\n        /* \"#utility.yul\":1707:1739   */\n      slt\n        /* \"#utility.yul\":1704:1706   */\n      iszero\n      tag_125\n      jumpi\n        /* \"#utility.yul\":1752:1753   */\n      0x00\n        /* \"#utility.yul\":1749:1750   */\n      dup1\n        /* \"#utility.yul\":1742:1754   */\n      revert\n        /* \"#utility.yul\":1704:1706   */\n    tag_125:\n        /* \"#utility.yul\":1795:1796   */\n      0x00\n        /* \"#utility.yul\":1820:1873   */\n      tag_126\n        /* \"#utility.yul\":1865:1872   */\n      dup5\n        /* \"#utility.yul\":1856:1862   */\n      dup3\n        /* \"#utility.yul\":1845:1854   */\n      dup6\n        /* \"#utility.yul\":1841:1863   */\n      add\n        /* \"#utility.yul\":1820:1873   */\n      tag_111\n      jump\t// in\n    tag_126:\n        /* \"#utility.yul\":1810:1873   */\n      swap2\n      pop\n        /* \"#utility.yul\":1766:1883   */\n      pop\n        /* \"#utility.yul\":1694:1890   */\n      swap3\n      swap2\n      pop\n      pop\n      jump\t// out\n        /* \"#utility.yul\":1896:2014   */\n    tag_127:\n        /* \"#utility.yul\":1983:2007   */\n      tag_129\n        /* \"#utility.yul\":2001:2006   */\n      dup2\n        /* \"#utility.yul\":1983:2007   */\n      tag_130\n      jump\t// in\n    tag_129:\n        /* \"#utility.yul\":1978:1981   */\n      dup3\n        /* \"#utility.yul\":1971:2008   */\n      mstore\n        /* \"#utility.yul\":1961:2014   */\n      pop\n      pop\n      jump\t// out\n        /* \"#utility.yul\":2020:2129   */\n    tag_131:\n        /* \"#utility.yul\":2101:2122   */\n      tag_133\n        /* \"#utility.yul\":2116:2121   */\n      dup2\n        /* \"#utility.yul\":2101:2122   */\n      tag_134\n      jump\t// in\n    tag_133:\n        /* \"#utility.yul\":2096:2099   */\n      dup3\n        /* \"#utility.yul\":2089:2123   */\n      mstore\n        /* \"#utility.yul\":2079:2129   */\n      pop\n      pop\n      jump\t// out\n        /* \"#utility.yul\":2135:2499   */\n    tag_135:\n        /* \"#utility.yul\":2223:2226   */\n      0x00\n        /* \"#utility.yul\":2251:2290   */\n      tag_137\n        /* \"#utility.yul\":2284:2289   */\n      dup3\n        /* \"#utility.yul\":2251:2290   */\n      tag_138\n      jump\t// in\n    tag_137:\n        /* \"#utility.yul\":2306:2377   */\n      tag_139\n        /* \"#utility.yul\":2370:2376   */\n      dup2\n        /* \"#utility.yul\":2365:2368   */\n      dup6\n        /* \"#utility.yul\":2306:2377   */\n      tag_140\n      jump\t// in\n    tag_139:\n        /* \"#utility.yul\":2299:2377   */\n      swap4\n      pop\n        /* \"#utility.yul\":2386:2438   */\n      tag_141\n        /* \"#utility.yul\":2431:2437   */\n      dup2\n        /* \"#utility.yul\":2426:2429   */\n      dup6\n        /* \"#utility.yul\":2419:2423   */\n      0x20\n        /* \"#utility.yul\":2412:2417   */\n      dup7\n        /* \"#utility.yul\":2408:2424   */\n      add\n        /* \"#utility.yul\":2386:2438   */\n      tag_142\n      jump\t// in\n    tag_141:\n        /* \"#utility.yul\":2463:2492   */\n      tag_143\n        /* \"#utility.yul\":2485:2491   */\n      dup2\n        /* \"#utility.yul\":2463:2492   */\n      tag_144\n      jump\t// in\n    tag_143:\n        /* \"#utility.yul\":2458:2461   */\n      dup5\n        /* \"#utility.yul\":2454:2493   */\n      add\n        /* \"#utility.yul\":2447:2493   */\n      swap2\n      pop\n        /* \"#utility.yul\":2227:2499   */\n      pop\n      swap3\n      swap2\n      pop\n      pop\n      jump\t// out\n        /* \"#utility.yul\":2505:2623   */\n    tag_145:\n        /* \"#utility.yul\":2592:2616   */\n      tag_147\n        /* \"#utility.yul\":2610:2615   */\n      dup2\n        /* \"#utility.yul\":2592:2616   */\n      tag_148\n      jump\t// in\n    tag_147:\n        /* \"#utility.yul\":2587:2590   */\n      dup3\n        /* \"#utility.yul\":2580:2617   */\n      mstore\n        /* \"#utility.yul\":2570:2623   */\n      pop\n      pop\n      jump\t// out\n        /* \"#utility.yul\":2629:2851   */\n    tag_29:\n        /* \"#utility.yul\":2722:2726   */\n      0x00\n        /* \"#utility.yul\":2760:2762   */\n      0x20\n        /* \"#utility.yul\":2749:2758   */\n      dup3\n        /* \"#utility.yul\":2745:2763   */\n      add\n        /* \"#utility.yul\":2737:2763   */\n      swap1\n      pop\n        /* \"#utility.yul\":2773:2844   */\n      tag_150\n        /* \"#utility.yul\":2841:2842   */\n      0x00\n        /* \"#utility.yul\":2830:2839   */\n      dup4\n        /* \"#utility.yul\":2826:2843   */\n      add\n        /* \"#utility.yul\":2817:2823   */\n      dup5\n        /* \"#utility.yul\":2773:2844   */\n      tag_127\n      jump\t// in\n    tag_150:\n        /* \"#utility.yul\":2727:2851   */\n      swap3\n      swap2\n      pop\n      pop\n      jump\t// out\n        /* \"#utility.yul\":2857:3067   */\n    tag_24:\n        /* \"#utility.yul\":2944:2948   */\n      0x00\n        /* \"#utility.yul\":2982:2984   */\n      0x20\n        /* \"#utility.yul\":2971:2980   */\n      dup3\n        /* \"#utility.yul\":2967:2985   */\n      add\n        /* \"#utility.yul\":2959:2985   */\n      swap1\n      pop\n        /* \"#utility.yul\":2995:3060   */\n      tag_152\n        /* \"#utility.yul\":3057:3058   */\n      0x00\n        /* \"#utility.yul\":3046:3055   */\n      dup4\n        /* \"#utility.yul\":3042:3059   */\n      add\n        /* \"#utility.yul\":3033:3039   */\n      dup5\n        /* \"#utility.yul\":2995:3060   */\n      tag_131\n      jump\t// in\n    tag_152:\n        /* \"#utility.yul\":2949:3067   */\n      swap3\n      swap2\n      pop\n      pop\n      jump\t// out\n        /* \"#utility.yul\":3073:3816   */\n    tag_35:\n        /* \"#utility.yul\":3292:3296   */\n      0x00\n        /* \"#utility.yul\":3330:3333   */\n      0xa0\n        /* \"#utility.yul\":3319:3328   */\n      dup3\n        /* \"#utility.yul\":3315:3334   */\n      add\n        /* \"#utility.yul\":3307:3334   */\n      swap1\n      pop\n        /* \"#utility.yul\":3380:3389   */\n      dup2\n        /* \"#utility.yul\":3374:3378   */\n      dup2\n        /* \"#utility.yul\":3370:3390   */\n      sub\n        /* \"#utility.yul\":3366:3367   */\n      0x00\n        /* \"#utility.yul\":3355:3364   */\n      dup4\n        /* \"#utility.yul\":3351:3368   */\n      add\n        /* \"#utility.yul\":3344:3391   */\n      mstore\n        /* \"#utility.yul\":3408:3486   */\n      tag_154\n        /* \"#utility.yul\":3481:3485   */\n      dup2\n        /* \"#utility.yul\":3472:3478   */\n      dup9\n        /* \"#utility.yul\":3408:3486   */\n      tag_135\n      jump\t// in\n    tag_154:\n        /* \"#utility.yul\":3400:3486   */\n      swap1\n      pop\n        /* \"#utility.yul\":3496:3568   */\n      tag_155\n        /* \"#utility.yul\":3564:3566   */\n      0x20\n        /* \"#utility.yul\":3553:3562   */\n      dup4\n        /* \"#utility.yul\":3549:3567   */\n      add\n        /* \"#utility.yul\":3540:3546   */\n      dup8\n        /* \"#utility.yul\":3496:3568   */\n      tag_145\n      jump\t// in\n    tag_155:\n        /* \"#utility.yul\":3578:3650   */\n      tag_156\n        /* \"#utility.yul\":3646:3648   */\n      0x40\n        /* \"#utility.yul\":3635:3644   */\n      dup4\n        /* \"#utility.yul\":3631:3649   */\n      add\n        /* \"#utility.yul\":3622:3628   */\n      dup7\n        /* \"#utility.yul\":3578:3650   */\n      tag_127\n      jump\t// in\n    tag_156:\n        /* \"#utility.yul\":3660:3726   */\n      tag_157\n        /* \"#utility.yul\":3722:3724   */\n      0x60\n        /* \"#utility.yul\":3711:3720   */\n      dup4\n        /* \"#utility.yul\":3707:3725   */\n      add\n        /* \"#utility.yul\":3698:3704   */\n      dup6\n        /* \"#utility.yul\":3660:3726   */\n      tag_131\n      jump\t// in\n    tag_157:\n        /* \"#utility.yul\":3736:3809   */\n      tag_158\n        /* \"#utility.yul\":3804:3807   */\n      0x80\n        /* \"#utility.yul\":3793:3802   */\n      dup4\n        /* \"#utility.yul\":3789:3808   */\n      add\n        /* \"#utility.yul\":3780:3786   */\n      dup5\n        /* \"#utility.yul\":3736:3809   */\n      tag_145\n      jump\t// in\n    tag_158:\n        /* \"#utility.yul\":3297:3816   */\n      swap7\n      swap6\n      pop\n      pop\n      pop\n      pop\n      pop\n      pop\n      jump\t// out\n        /* \"#utility.yul\":3822:4044   */\n    tag_40:\n        /* \"#utility.yul\":3915:3919   */\n      0x00\n        /* \"#utility.yul\":3953:3955   */\n      0x20\n        /* \"#utility.yul\":3942:3951   */\n      dup3\n        /* \"#utility.yul\":3938:3956   */\n      add\n        /* \"#utility.yul\":3930:3956   */\n      swap1\n      pop\n        /* \"#utility.yul\":3966:4037   */\n      tag_160\n        /* \"#utility.yul\":4034:4035   */\n      0x00\n        /* \"#utility.yul\":4023:4032   */\n      dup4\n        /* \"#utility.yul\":4019:4036   */\n      add\n        /* \"#utility.yul\":4010:4016   */\n      dup5\n        /* \"#utility.yul\":3966:4037   */\n      tag_145\n      jump\t// in\n    tag_160:\n        /* \"#utility.yul\":3920:4044   */\n      swap3\n      swap2\n      pop\n      pop\n      jump\t// out\n        /* \"#utility.yul\":4050:4149   */\n    tag_138:\n        /* \"#utility.yul\":4102:4108   */\n      0x00\n        /* \"#utility.yul\":4136:4141   */\n      dup2\n        /* \"#utility.yul\":4130:4142   */\n      mload\n        /* \"#utility.yul\":4120:4142   */\n      swap1\n      pop\n        /* \"#utility.yul\":4109:4149   */\n      swap2\n      swap1\n      pop\n      jump\t// out\n        /* \"#utility.yul\":4155:4324   */\n    tag_140:\n        /* \"#utility.yul\":4239:4250   */\n      0x00\n        /* \"#utility.yul\":4273:4279   */\n      dup3\n        /* \"#utility.yul\":4268:4271   */\n      dup3\n        /* \"#utility.yul\":4261:4280   */\n      mstore\n        /* \"#utility.yul\":4313:4317   */\n      0x20\n        /* \"#utility.yul\":4308:4311   */\n      dup3\n        /* \"#utility.yul\":4304:4318   */\n      add\n        /* \"#utility.yul\":4289:4318   */\n      swap1\n      pop\n        /* \"#utility.yul\":4251:4324   */\n      swap3\n      swap2\n      pop\n      pop\n      jump\t// out\n        /* \"#utility.yul\":4330:4515   */\n    tag_67:\n        /* \"#utility.yul\":4370:4371   */\n      0x00\n        /* \"#utility.yul\":4387:4407   */\n      tag_164\n        /* \"#utility.yul\":4405:4406   */\n      dup3\n        /* \"#utility.yul\":4387:4407   */\n      tag_148\n      jump\t// in\n    tag_164:\n        /* \"#utility.yul\":4382:4407   */\n      swap2\n      pop\n        /* \"#utility.yul\":4421:4441   */\n      tag_165\n        /* \"#utility.yul\":4439:4440   */\n      dup4\n        /* \"#utility.yul\":4421:4441   */\n      tag_148\n      jump\t// in\n    tag_165:\n        /* \"#utility.yul\":4416:4441   */\n      swap3\n      pop\n        /* \"#utility.yul\":4460:4461   */\n      dup3\n        /* \"#utility.yul\":4450:4452   */\n      tag_166\n      jumpi\n        /* \"#utility.yul\":4465:4483   */\n      tag_167\n      tag_168\n      jump\t// in\n    tag_167:\n        /* \"#utility.yul\":4450:4452   */\n    tag_166:\n        /* \"#utility.yul\":4507:4508   */\n      dup3\n        /* \"#utility.yul\":4504:4505   */\n      dup3\n        /* \"#utility.yul\":4500:4509   */\n      div\n        /* \"#utility.yul\":4495:4509   */\n      swap1\n      pop\n        /* \"#utility.yul\":4372:4515   */\n      swap3\n      swap2\n      pop\n      pop\n      jump\t// out\n        /* \"#utility.yul\":4521:4617   */\n    tag_130:\n        /* \"#utility.yul\":4558:4565   */\n      0x00\n        /* \"#utility.yul\":4587:4611   */\n      tag_170\n        /* \"#utility.yul\":4605:4610   */\n      dup3\n        /* \"#utility.yul\":4587:4611   */\n      tag_171\n      jump\t// in\n    tag_170:\n        /* \"#utility.yul\":4576:4611   */\n      swap1\n      pop\n        /* \"#utility.yul\":4566:4617   */\n      swap2\n      swap1\n      pop\n      jump\t// out\n        /* \"#utility.yul\":4623:4713   */\n    tag_134:\n        /* \"#utility.yul\":4657:4664   */\n      0x00\n        /* \"#utility.yul\":4700:4705   */\n      dup2\n        /* \"#utility.yul\":4693:4706   */\n      iszero\n        /* \"#utility.yul\":4686:4707   */\n      iszero\n        /* \"#utility.yul\":4675:4707   */\n      swap1\n      pop\n        /* \"#utility.yul\":4665:4713   */\n      swap2\n      swap1\n      pop\n      jump\t// out\n        /* \"#utility.yul\":4719:4845   */\n    tag_171:\n        /* \"#utility.yul\":4756:4763   */\n      0x00\n        /* \"#utility.yul\":4796:4838   */\n      0xffffffffffffffffffffffffffffffffffffffff\n        /* \"#utility.yul\":4789:4794   */\n      dup3\n        /* \"#utility.yul\":4785:4839   */\n      and\n        /* \"#utility.yul\":4774:4839   */\n      swap1\n      pop\n        /* \"#utility.yul\":4764:4845   */\n      swap2\n      swap1\n      pop\n      jump\t// out\n        /* \"#utility.yul\":4851:4928   */\n    tag_148:\n        /* \"#utility.yul\":4888:4895   */\n      0x00\n        /* \"#utility.yul\":4917:4922   */\n      dup2\n        /* \"#utility.yul\":4906:4922   */\n      swap1\n      pop\n        /* \"#utility.yul\":4896:4928   */\n      swap2\n      swap1\n      pop\n      jump\t// out\n        /* \"#utility.yul\":4934:5241   */\n    tag_142:\n        /* \"#utility.yul\":5002:5003   */\n      0x00\n        /* \"#utility.yul\":5012:5125   */\n    tag_176:\n        /* \"#utility.yul\":5026:5032   */\n      dup4\n        /* \"#utility.yul\":5023:5024   */\n      dup2\n        /* \"#utility.yul\":5020:5033   */\n      lt\n        /* \"#utility.yul\":5012:5125   */\n      iszero\n      tag_178\n      jumpi\n        /* \"#utility.yul\":5111:5112   */\n      dup1\n        /* \"#utility.yul\":5106:5109   */\n      dup3\n        /* \"#utility.yul\":5102:5113   */\n      add\n        /* \"#utility.yul\":5096:5114   */\n      mload\n        /* \"#utility.yul\":5092:5093   */\n      dup2\n        /* \"#utility.yul\":5087:5090   */\n      dup5\n        /* \"#utility.yul\":5083:5094   */\n      add\n        /* \"#utility.yul\":5076:5115   */\n      mstore\n        /* \"#utility.yul\":5048:5050   */\n      0x20\n        /* \"#utility.yul\":5045:5046   */\n      dup2\n        /* \"#utility.yul\":5041:5051   */\n      add\n        /* \"#utility.yul\":5036:5051   */\n      swap1\n      pop\n        /* \"#utility.yul\":5012:5125   */\n      jump(tag_176)\n    tag_178:\n        /* \"#utility.yul\":5143:5149   */\n      dup4\n        /* \"#utility.yul\":5140:5141   */\n      dup2\n        /* \"#utility.yul\":5137:5150   */\n      gt\n        /* \"#utility.yul\":5134:5136   */\n      iszero\n      tag_179\n      jumpi\n        /* \"#utility.yul\":5223:5224   */\n      0x00\n        /* \"#utility.yul\":5214:5220   */\n      dup5\n        /* \"#utility.yul\":5209:5212   */\n      dup5\n        /* \"#utility.yul\":5205:5221   */\n      add\n        /* \"#utility.yul\":5198:5225   */\n      mstore\n        /* \"#utility.yul\":5134:5136   */\n    tag_179:\n        /* \"#utility.yul\":4983:5241   */\n      pop\n      pop\n      pop\n      pop\n      jump\t// out\n        /* \"#utility.yul\":5247:5567   */\n    tag_72:\n        /* \"#utility.yul\":5291:5297   */\n      0x00\n        /* \"#utility.yul\":5328:5329   */\n      0x02\n        /* \"#utility.yul\":5322:5326   */\n      dup3\n        /* \"#utility.yul\":5318:5330   */\n      div\n        /* \"#utility.yul\":5308:5330   */\n      swap1\n      pop\n        /* \"#utility.yul\":5375:5376   */\n      0x01\n        /* \"#utility.yul\":5369:5373   */\n      dup3\n        /* \"#utility.yul\":5365:5377   */\n      and\n        /* \"#utility.yul\":5396:5414   */\n      dup1\n        /* \"#utility.yul\":5386:5388   */\n      tag_181\n      jumpi\n        /* \"#utility.yul\":5452:5456   */\n      0x7f\n        /* \"#utility.yul\":5444:5450   */\n      dup3\n        /* \"#utility.yul\":5440:5457   */\n      and\n        /* \"#utility.yul\":5430:5457   */\n      swap2\n      pop\n        /* \"#utility.yul\":5386:5388   */\n    tag_181:\n        /* \"#utility.yul\":5514:5516   */\n      0x20\n        /* \"#utility.yul\":5506:5512   */\n      dup3\n        /* \"#utility.yul\":5503:5517   */\n      lt\n        /* \"#utility.yul\":5483:5501   */\n      dup2\n        /* \"#utility.yul\":5480:5518   */\n      eq\n        /* \"#utility.yul\":5477:5479   */\n      iszero\n      tag_182\n      jumpi\n        /* \"#utility.yul\":5533:5551   */\n      tag_183\n      tag_184\n      jump\t// in\n    tag_183:\n        /* \"#utility.yul\":5477:5479   */\n    tag_182:\n        /* \"#utility.yul\":5298:5567   */\n      pop\n      swap2\n      swap1\n      pop\n      jump\t// out\n        /* \"#utility.yul\":5573:5806   */\n    tag_81:\n        /* \"#utility.yul\":5612:5615   */\n      0x00\n        /* \"#utility.yul\":5635:5659   */\n      tag_186\n        /* \"#utility.yul\":5653:5658   */\n      dup3\n        /* \"#utility.yul\":5635:5659   */\n      tag_148\n      jump\t// in\n    tag_186:\n        /* \"#utility.yul\":5626:5659   */\n      swap2\n      pop\n        /* \"#utility.yul\":5681:5747   */\n      0xffffffffffffffffffffffffffffffffffffffffffffffffffffffffffffffff\n        /* \"#utility.yul\":5674:5679   */\n      dup3\n        /* \"#utility.yul\":5671:5748   */\n      eq\n        /* \"#utility.yul\":5668:5670   */\n      iszero\n      tag_187\n      jumpi\n        /* \"#utility.yul\":5751:5769   */\n      tag_188\n      tag_189\n      jump\t// in\n    tag_188:\n        /* \"#utility.yul\":5668:5670   */\n    tag_187:\n        /* \"#utility.yul\":5798:5799   */\n      0x01\n        /* \"#utility.yul\":5791:5796   */\n      dup3\n        /* \"#utility.yul\":5787:5800   */\n      add\n        /* \"#utility.yul\":5780:5800   */\n      swap1\n      pop\n        /* \"#utility.yul\":5616:5806   */\n      swap2\n      swap1\n      pop\n      jump\t// out\n        /* \"#utility.yul\":5812:5992   */\n    tag_189:\n        /* \"#utility.yul\":5860:5937   */\n      0x4e487b7100000000000000000000000000000000000000000000000000000000\n        /* \"#utility.yul\":5857:5858   */\n      0x00\n        /* \"#utility.yul\":5850:5938   */\n      mstore\n        /* \"#utility.yul\":5957:5961   */\n      0x11\n        /* \"#utility.yul\":5954:5955   */\n      0x04\n        /* \"#utility.yul\":5947:5962   */\n      mstore\n        /* \"#utility.yul\":5981:5985   */\n      0x24\n        /* \"#utility.yul\":5978:5979   */\n      0x00\n        /* \"#utility.yul\":5971:5986   */\n      revert\n        /* \"#utility.yul\":5998:6178   */\n    tag_168:\n        /* \"#utility.yul\":6046:6123   */\n      0x4e487b7100000000000000000000000000000000000000000000000000000000\n        /* \"#utility.yul\":6043:6044   */\n      0x00\n        /* \"#utility.yul\":6036:6124   */\n      mstore\n        /* \"#utility.yul\":6143:6147   */\n      0x12\n        /* \"#utility.yul\":6140:6141   */\n      0x04\n        /* \"#utility.yul\":6133:6148   */\n      mstore\n        /* \"#utility.yul\":6167:6171   */\n      0x24\n        /* \"#utility.yul\":6164:6165   */\n      0x00\n        /* \"#utility.yul\":6157:6172   */\n      revert\n        /* \"#utility.yul\":6184:6364   */\n    tag_184:\n        /* \"#utility.yul\":6232:6309   */\n      0x4e487b7100000000000000000000000000000000000000000000000000000000\n        /* \"#utility.yul\":6229:6230   */\n      0x00\n        /* \"#utility.yul\":6222:6310   */\n      mstore\n        /* \"#utility.yul\":6329:6333   */\n      0x22\n        /* \"#utility.yul\":6326:6327   */\n      0x04\n        /* \"#utility.yul\":6319:6334   */\n      mstore\n        /* \"#utility.yul\":6353:6357   */\n      0x24\n        /* \"#utility.yul\":6350:6351   */\n      0x00\n        /* \"#utility.yul\":6343:6358   */\n      revert\n        /* \"#utility.yul\":6370:6472   */\n    tag_144:\n        /* \"#utility.yul\":6411:6417   */\n      0x00\n        /* \"#utility.yul\":6462:6464   */\n      0x1f\n        /* \"#utility.yul\":6458:6465   */\n      not\n        /* \"#utility.yul\":6453:6455   */\n      0x1f\n        /* \"#utility.yul\":6446:6451   */\n      dup4\n        /* \"#utility.yul\":6442:6456   */\n      add\n        /* \"#utility.yul\":6438:6466   */\n      and\n        /* \"#utility.yul\":6428:6466   */\n      swap1\n      pop\n        /* \"#utility.yul\":6418:6472   */\n      swap2\n      swap1\n      pop\n      jump\t// out\n        /* \"#utility.yul\":6478:6600   */\n    tag_105:\n        /* \"#utility.yul\":6551:6575   */\n      tag_195\n        /* \"#utility.yul\":6569:6574   */\n      dup2\n        /* \"#utility.yul\":6551:6575   */\n      tag_130\n      jump\t// in\n    tag_195:\n        /* \"#utility.yul\":6544:6549   */\n      dup2\n        /* \"#utility.yul\":6541:6576   */\n      eq\n        /* \"#utility.yul\":6531:6533   */\n      tag_196\n      jumpi\n        /* \"#utility.yul\":6590:6591   */\n      0x00\n        /* \"#utility.yul\":6587:6588   */\n      dup1\n        /* \"#utility.yul\":6580:6592   */\n      revert\n        /* \"#utility.yul\":6531:6533   */\n    tag_196:\n        /* \"#utility.yul\":6521:6600   */\n      pop\n      jump\t// out\n        /* \"#utility.yul\":6606:6728   */\n    tag_114:\n        /* \"#utility.yul\":6679:6703   */\n      tag_198\n        /* \"#utility.yul\":6697:6702   */\n      dup2\n        /* \"#utility.yul\":6679:6703   */\n      tag_148\n      jump\t// in\n    tag_198:\n        /* \"#utility.yul\":6672:6677   */\n      dup2\n        /* \"#utility.yul\":6669:6704   */\n      eq\n        /* \"#utility.yul\":6659:6661   */\n      tag_199\n      jumpi\n        /* \"#utility.yul\":6718:6719   */\n      0x00\n        /* \"#utility.yul\":6715:6716   */\n      dup1\n        /* \"#utility.yul\":6708:6720   */\n      revert\n        /* \"#utility.yul\":6659:6661   */\n    tag_199:\n        /* \"#utility.yul\":6649:6728   */\n      pop\n      jump\t// out\n\n    auxdata: 0xa2646970667358221220601b1a42ce113b1a57ba4cf4d3b58e11a713794db82f034e68e55e38da84bda964736f6c63430008040033\n}\n","bytecode":{"linkReferences":{},"object":"60806040523480156200001157600080fd5b5060405162000e5a38038062000e5a8339818101604052810190620000379190620000b4565b806000806101000a81548173ffffffffffffffffffffffffffffffffffffffff021916908373ffffffffffffffffffffffffffffffffffffffff16021790555081600181905550505062000167565b600081519050620000978162000133565b92915050565b600081519050620000ae816200014d565b92915050565b60008060408385031215620000c857600080fd5b6000620000d8858286016200009d565b9250506020620000eb8582860162000086565b9150509250929050565b6000620001028262000109565b9050919050565b600073ffffffffffffffffffffffffffffffffffffffff82169050919050565b6000819050919050565b6200013e81620000f5565b81146200014a57600080fd5b50565b620001588162000129565b81146200016457600080fd5b50565b610ce380620001776000396000f3fe6080604052600436106100915760003560e01c80638a9cfd55116100595780638a9cfd5514610193578063937e09b1146101bc5780639fb42b1f146101e7578063d7bb99ba14610212578063d7d1bbdb1461021c57610091565b806303441006146100965780630a144391146100bf578063481c6a75146100fc57806381d12c581461012757806382fde09314610168575b600080fd5b3480156100a257600080fd5b506100bd60048036038101906100b89190610964565b610245565b005b3480156100cb57600080fd5b506100e660048036038101906100e191906108cf565b6103a0565b6040516100f39190610a0e565b60405180910390f35b34801561010857600080fd5b506101116103c0565b60405161011e91906109f3565b60405180910390f35b34801561013357600080fd5b5061014e60048036038101906101499190610964565b6103e4565b60405161015f959493929190610a29565b60405180910390f35b34801561017457600080fd5b5061017d6104cf565b60405161018a9190610a83565b60405180910390f35b34801561019f57600080fd5b506101ba60048036038101906101b591906108f8565b6104d5565b005b3480156101c857600080fd5b506101d16105ee565b6040516101de9190610a83565b60405180910390f35b3480156101f357600080fd5b506101fc6105f4565b6040516102099190610a83565b60405180910390f35b61021a6105fa565b005b34801561022857600080fd5b50610243600480360381019061023e9190610964565b61067a565b005b60008054906101000a900473ffffffffffffffffffffffffffffffffffffffff1673ffffffffffffffffffffffffffffffffffffffff163373ffffffffffffffffffffffffffffffffffffffff161461029d57600080fd5b600060056000838152602001908152602001600020905081600011156102c257600080fd5b60045482106102d057600080fd5b8060020160149054906101000a900460ff16156102ec57600080fd5b60026003546102fb9190610aba565b81600301541161030a57600080fd5b60008160020160009054906101000a900473ffffffffffffffffffffffffffffffffffffffff1690508073ffffffffffffffffffffffffffffffffffffffff166108fc83600101549081150290604051600060405180830381858888f1935050505015801561037d573d6000803e3d6000fd5b5060018260020160146101000a81548160ff021916908315150217905550505050565b60026020528060005260406000206000915054906101000a900460ff1681565b60008054906101000a900473ffffffffffffffffffffffffffffffffffffffff1681565b600560205280600052604060002060009150905080600001805461040790610b66565b80601f016020809104026020016040519081016040528092919081815260200182805461043390610b66565b80156104805780601f1061045557610100808354040283529160200191610480565b820191906000526020600020905b81548152906001019060200180831161046357829003601f168201915b5050505050908060010154908060020160009054906101000a900473ffffffffffffffffffffffffffffffffffffffff16908060020160149054906101000a900460ff16908060030154905085565b60035481565b60008054906101000a900473ffffffffffffffffffffffffffffffffffffffff1673ffffffffffffffffffffffffffffffffffffffff163373ffffffffffffffffffffffffffffffffffffffff161461052d57600080fd5b60006004600081548092919061054290610b98565b919050559050600060056000838152602001908152602001600020905085858260000191906105729291906107b8565b50838160010181905550828160020160006101000a81548173ffffffffffffffffffffffffffffffffffffffff021916908373ffffffffffffffffffffffffffffffffffffffff16021790555060008160020160146101000a81548160ff02191690831515021790555060008160030181905550505050505050565b60015481565b60045481565b600154341161060857600080fd5b6001600260003373ffffffffffffffffffffffffffffffffffffffff1673ffffffffffffffffffffffffffffffffffffffff16815260200190815260200160002060006101000a81548160ff0219169083151502179055506003600081548092919061067390610b98565b9190505550565b6000600560008381526020019081526020016000209050600260003373ffffffffffffffffffffffffffffffffffffffff1673ffffffffffffffffffffffffffffffffffffffff16815260200190815260200160002060009054906101000a900460ff166106e757600080fd5b8060040160003373ffffffffffffffffffffffffffffffffffffffff1673ffffffffffffffffffffffffffffffffffffffff16815260200190815260200160002060009054906101000a900460ff161561074057600080fd5b60018160040160003373ffffffffffffffffffffffffffffffffffffffff1673ffffffffffffffffffffffffffffffffffffffff16815260200190815260200160002060006101000a81548160ff0219169083151502179055508060030160008154809291906107af90610b98565b91905055505050565b8280546107c490610b66565b90600052602060002090601f0160209004810192826107e6576000855561082d565b82601f106107ff57803560ff191683800117855561082d565b8280016001018555821561082d579182015b8281111561082c578235825591602001919060010190610811565b5b50905061083a919061083e565b5090565b5b8082111561085757600081600090555060010161083f565b5090565b60008135905061086a81610c7f565b92915050565b60008083601f84011261088257600080fd5b8235905067ffffffffffffffff81111561089b57600080fd5b6020830191508360018202830111156108b357600080fd5b9250929050565b6000813590506108c981610c96565b92915050565b6000602082840312156108e157600080fd5b60006108ef8482850161085b565b91505092915050565b6000806000806060858703121561090e57600080fd5b600085013567ffffffffffffffff81111561092857600080fd5b61093487828801610870565b94509450506020610947878288016108ba565b92505060406109588782880161085b565b91505092959194509250565b60006020828403121561097657600080fd5b6000610984848285016108ba565b91505092915050565b61099681610aeb565b82525050565b6109a581610afd565b82525050565b60006109b682610a9e565b6109c08185610aa9565b93506109d0818560208601610b33565b6109d981610c6e565b840191505092915050565b6109ed81610b29565b82525050565b6000602082019050610a08600083018461098d565b92915050565b6000602082019050610a23600083018461099c565b92915050565b600060a0820190508181036000830152610a4381886109ab565b9050610a5260208301876109e4565b610a5f604083018661098d565b610a6c606083018561099c565b610a7960808301846109e4565b9695505050505050565b6000602082019050610a9860008301846109e4565b92915050565b600081519050919050565b600082825260208201905092915050565b6000610ac582610b29565b9150610ad083610b29565b925082610ae057610adf610c10565b5b828204905092915050565b6000610af682610b09565b9050919050565b60008115159050919050565b600073ffffffffffffffffffffffffffffffffffffffff82169050919050565b6000819050919050565b60005b83811015610b51578082015181840152602081019050610b36565b83811115610b60576000848401525b50505050565b60006002820490506001821680610b7e57607f821691505b60208210811415610b9257610b91610c3f565b5b50919050565b6000610ba382610b29565b91507fffffffffffffffffffffffffffffffffffffffffffffffffffffffffffffffff821415610bd657610bd5610be1565b5b600182019050919050565b7f4e487b7100000000000000000000000000000000000000000000000000000000600052601160045260246000fd5b7f4e487b7100000000000000000000000000000000000000000000000000000000600052601260045260246000fd5b7f4e487b7100000000000000000000000000000000000000000000000000000000600052602260045260246000fd5b6000601f19601f8301169050919050565b610c8881610aeb565b8114610c9357600080fd5b50565b610c9f81610b29565b8114610caa57600080fd5b5056fea2646970667358221220601b1a42ce113b1a57ba4cf4d3b58e11a713794db82f034e68e55e38da84bda964736f6c63430008040033","opcodes":"PUSH1 0x80 PUSH1 0x40 MSTORE CALLVALUE DUP1 ISZERO PUSH3 0x11 JUMPI PUSH1 0x0 DUP1 REVERT JUMPDEST POP PUSH1 0x40 MLOAD PUSH3 0xE5A CODESIZE SUB DUP1 PUSH3 0xE5A DUP4 CODECOPY DUP2 DUP2 ADD PUSH1 0x40 MSTORE DUP2 ADD SWAP1 PUSH3 0x37 SWAP2 SWAP1 PUSH3 0xB4 JUMP JUMPDEST DUP1 PUSH1 0x0 DUP1 PUSH2 0x100 EXP DUP2 SLOAD DUP2 PUSH20 0xFFFFFFFFFFFFFFFFFFFFFFFFFFFFFFFFFFFFFFFF MUL NOT AND SWAP1 DUP4 PUSH20 0xFFFFFFFFFFFFFFFFFFFFFFFFFFFFFFFFFFFFFFFF AND MUL OR SWAP1 SSTORE POP DUP2 PUSH1 0x1 DUP2 SWAP1 SSTORE POP POP POP PUSH3 0x167 JUMP JUMPDEST PUSH1 0x0 DUP2 MLOAD SWAP1 POP PUSH3 0x97 DUP2 PUSH3 0x133 JUMP JUMPDEST SWAP3 SWAP2 POP POP JUMP JUMPDEST PUSH1 0x0 DUP2 MLOAD SWAP1 POP PUSH3 0xAE DUP2 PUSH3 0x14D JUMP JUMPDEST SWAP3 SWAP2 POP POP JUMP JUMPDEST PUSH1 0x0 DUP1 PUSH1 0x40 DUP4 DUP6 SUB SLT ISZERO PUSH3 0xC8 JUMPI PUSH1 0x0 DUP1 REVERT JUMPDEST PUSH1 0x0 PUSH3 0xD8 DUP6 DUP3 DUP7 ADD PUSH3 0x9D JUMP JUMPDEST SWAP3 POP POP PUSH1 0x20 PUSH3 0xEB DUP6 DUP3 DUP7 ADD PUSH3 0x86 JUMP JUMPDEST SWAP2 POP POP SWAP3 POP SWAP3 SWAP1 POP JUMP JUMPDEST PUSH1 0x0 PUSH3 0x102 DUP3 PUSH3 0x109 JUMP JUMPDEST SWAP1 POP SWAP2 SWAP1 POP JUMP JUMPDEST PUSH1 0x0 PUSH20 0xFFFFFFFFFFFFFFFFFFFFFFFFFFFFFFFFFFFFFFFF DUP3 AND SWAP1 POP SWAP2 SWAP1 POP JUMP JUMPDEST PUSH1 0x0 DUP2 SWAP1 POP SWAP2 SWAP1 POP JUMP JUMPDEST PUSH3 0x13E DUP2 PUSH3 0xF5 JUMP JUMPDEST DUP2 EQ PUSH3 0x14A JUMPI PUSH1 0x0 DUP1 REVERT JUMPDEST POP JUMP JUMPDEST PUSH3 0x158 DUP2 PUSH3 0x129 JUMP JUMPDEST DUP2 EQ PUSH3 0x164 JUMPI PUSH1 0x0 DUP1 REVERT JUMPDEST POP JUMP JUMPDEST PUSH2 0xCE3 DUP1 PUSH3 0x177 PUSH1 0x0 CODECOPY PUSH1 0x0 RETURN INVALID PUSH1 0x80 PUSH1 0x40 MSTORE PUSH1 0x4 CALLDATASIZE LT PUSH2 0x91 JUMPI PUSH1 0x0 CALLDATALOAD PUSH1 0xE0 SHR DUP1 PUSH4 0x8A9CFD55 GT PUSH2 0x59 JUMPI DUP1 PUSH4 0x8A9CFD55 EQ PUSH2 0x193 JUMPI DUP1 PUSH4 0x937E09B1 EQ PUSH2 0x1BC JUMPI DUP1 PUSH4 0x9FB42B1F EQ PUSH2 0x1E7 JUMPI DUP1 PUSH4 0xD7BB99BA EQ PUSH2 0x212 JUMPI DUP1 PUSH4 0xD7D1BBDB EQ PUSH2 0x21C JUMPI PUSH2 0x91 JUMP JUMPDEST DUP1 PUSH4 0x3441006 EQ PUSH2 0x96 JUMPI DUP1 PUSH4 0xA144391 EQ PUSH2 0xBF JUMPI DUP1 PUSH4 0x481C6A75 EQ PUSH2 0xFC JUMPI DUP1 PUSH4 0x81D12C58 EQ PUSH2 0x127 JUMPI DUP1 PUSH4 0x82FDE093 EQ PUSH2 0x168 JUMPI JUMPDEST PUSH1 0x0 DUP1 REVERT JUMPDEST CALLVALUE DUP1 ISZERO PUSH2 0xA2 JUMPI PUSH1 0x0 DUP1 REVERT JUMPDEST POP PUSH2 0xBD PUSH1 0x4 DUP1 CALLDATASIZE SUB DUP2 ADD SWAP1 PUSH2 0xB8 SWAP2 SWAP1 PUSH2 0x964 JUMP JUMPDEST PUSH2 0x245 JUMP JUMPDEST STOP JUMPDEST CALLVALUE DUP1 ISZERO PUSH2 0xCB JUMPI PUSH1 0x0 DUP1 REVERT JUMPDEST POP PUSH2 0xE6 PUSH1 0x4 DUP1 CALLDATASIZE SUB DUP2 ADD SWAP1 PUSH2 0xE1 SWAP2 SWAP1 PUSH2 0x8CF JUMP JUMPDEST PUSH2 0x3A0 JUMP JUMPDEST PUSH1 0x40 MLOAD PUSH2 0xF3 SWAP2 SWAP1 PUSH2 0xA0E JUMP JUMPDEST PUSH1 0x40 MLOAD DUP1 SWAP2 SUB SWAP1 RETURN JUMPDEST CALLVALUE DUP1 ISZERO PUSH2 0x108 JUMPI PUSH1 0x0 DUP1 REVERT JUMPDEST POP PUSH2 0x111 PUSH2 0x3C0 JUMP JUMPDEST PUSH1 0x40 MLOAD PUSH2 0x11E SWAP2 SWAP1 PUSH2 0x9F3 JUMP JUMPDEST PUSH1 0x40 MLOAD DUP1 SWAP2 SUB SWAP1 RETURN JUMPDEST CALLVALUE DUP1 ISZERO PUSH2 0x133 JUMPI PUSH1 0x0 DUP1 REVERT JUMPDEST POP PUSH2 0x14E PUSH1 0x4 DUP1 CALLDATASIZE SUB DUP2 ADD SWAP1 PUSH2 0x149 SWAP2 SWAP1 PUSH2 0x964 JUMP JUMPDEST PUSH2 0x3E4 JUMP JUMPDEST PUSH1 0x40 MLOAD PUSH2 0x15F SWAP6 SWAP5 SWAP4 SWAP3 SWAP2 SWAP1 PUSH2 0xA29 JUMP JUMPDEST PUSH1 0x40 MLOAD DUP1 SWAP2 SUB SWAP1 RETURN JUMPDEST CALLVALUE DUP1 ISZERO PUSH2 0x174 JUMPI PUSH1 0x0 DUP1 REVERT JUMPDEST POP PUSH2 0x17D PUSH2 0x4CF JUMP JUMPDEST PUSH1 0x40 MLOAD PUSH2 0x18A SWAP2 SWAP1 PUSH2 0xA83 JUMP JUMPDEST PUSH1 0x40 MLOAD DUP1 SWAP2 SUB SWAP1 RETURN JUMPDEST CALLVALUE DUP1 ISZERO PUSH2 0x19F JUMPI PUSH1 0x0 DUP1 REVERT JUMPDEST POP PUSH2 0x1BA PUSH1 0x4 DUP1 CALLDATASIZE SUB DUP2 ADD SWAP1 PUSH2 0x1B5 SWAP2 SWAP1 PUSH2 0x8F8 JUMP JUMPDEST PUSH2 0x4D5 JUMP JUMPDEST STOP JUMPDEST CALLVALUE DUP1 ISZERO PUSH2 0x1C8 JUMPI PUSH1 0x0 DUP1 REVERT JUMPDEST POP PUSH2 0x1D1 PUSH2 0x5EE JUMP JUMPDEST PUSH1 0x40 MLOAD PUSH2 0x1DE SWAP2 SWAP1 PUSH2 0xA83 JUMP JUMPDEST PUSH1 0x40 MLOAD DUP1 SWAP2 SUB SWAP1 RETURN JUMPDEST CALLVALUE DUP1 ISZERO PUSH2 0x1F3 JUMPI PUSH1 0x0 DUP1 REVERT JUMPDEST POP PUSH2 0x1FC PUSH2 0x5F4 JUMP JUMPDEST PUSH1 0x40 MLOAD PUSH2 0x209 SWAP2 SWAP1 PUSH2 0xA83 JUMP JUMPDEST PUSH1 0x40 MLOAD DUP1 SWAP2 SUB SWAP1 RETURN JUMPDEST PUSH2 0x21A PUSH2 0x5FA JUMP JUMPDEST STOP JUMPDEST CALLVALUE DUP1 ISZERO PUSH2 0x228 JUMPI PUSH1 0x0 DUP1 REVERT JUMPDEST POP PUSH2 0x243 PUSH1 0x4 DUP1 CALLDATASIZE SUB DUP2 ADD SWAP1 PUSH2 0x23E SWAP2 SWAP1 PUSH2 0x964 JUMP JUMPDEST PUSH2 0x67A JUMP JUMPDEST STOP JUMPDEST PUSH1 0x0 DUP1 SLOAD SWAP1 PUSH2 0x100 EXP SWAP1 DIV PUSH20 0xFFFFFFFFFFFFFFFFFFFFFFFFFFFFFFFFFFFFFFFF AND PUSH20 0xFFFFFFFFFFFFFFFFFFFFFFFFFFFFFFFFFFFFFFFF AND CALLER PUSH20 0xFFFFFFFFFFFFFFFFFFFFFFFFFFFFFFFFFFFFFFFF AND EQ PUSH2 0x29D JUMPI PUSH1 0x0 DUP1 REVERT JUMPDEST PUSH1 0x0 PUSH1 0x5 PUSH1 0x0 DUP4 DUP2 MSTORE PUSH1 0x20 ADD SWAP1 DUP2 MSTORE PUSH1 0x20 ADD PUSH1 0x0 KECCAK256 SWAP1 POP DUP2 PUSH1 0x0 GT ISZERO PUSH2 0x2C2 JUMPI PUSH1 0x0 DUP1 REVERT JUMPDEST PUSH1 0x4 SLOAD DUP3 LT PUSH2 0x2D0 JUMPI PUSH1 0x0 DUP1 REVERT JUMPDEST DUP1 PUSH1 0x2 ADD PUSH1 0x14 SWAP1 SLOAD SWAP1 PUSH2 0x100 EXP SWAP1 DIV PUSH1 0xFF AND ISZERO PUSH2 0x2EC JUMPI PUSH1 0x0 DUP1 REVERT JUMPDEST PUSH1 0x2 PUSH1 0x3 SLOAD PUSH2 0x2FB SWAP2 SWAP1 PUSH2 0xABA JUMP JUMPDEST DUP2 PUSH1 0x3 ADD SLOAD GT PUSH2 0x30A JUMPI PUSH1 0x0 DUP1 REVERT JUMPDEST PUSH1 0x0 DUP2 PUSH1 0x2 ADD PUSH1 0x0 SWAP1 SLOAD SWAP1 PUSH2 0x100 EXP SWAP1 DIV PUSH20 0xFFFFFFFFFFFFFFFFFFFFFFFFFFFFFFFFFFFFFFFF AND SWAP1 POP DUP1 PUSH20 0xFFFFFFFFFFFFFFFFFFFFFFFFFFFFFFFFFFFFFFFF AND PUSH2 0x8FC DUP4 PUSH1 0x1 ADD SLOAD SWAP1 DUP2 ISZERO MUL SWAP1 PUSH1 0x40 MLOAD PUSH1 0x0 PUSH1 0x40 MLOAD DUP1 DUP4 SUB DUP2 DUP6 DUP9 DUP9 CALL SWAP4 POP POP POP POP ISZERO DUP1 ISZERO PUSH2 0x37D JUMPI RETURNDATASIZE PUSH1 0x0 DUP1 RETURNDATACOPY RETURNDATASIZE PUSH1 0x0 REVERT JUMPDEST POP PUSH1 0x1 DUP3 PUSH1 0x2 ADD PUSH1 0x14 PUSH2 0x100 EXP DUP2 SLOAD DUP2 PUSH1 0xFF MUL NOT AND SWAP1 DUP4 ISZERO ISZERO MUL OR SWAP1 SSTORE POP POP POP POP JUMP JUMPDEST PUSH1 0x2 PUSH1 0x20 MSTORE DUP1 PUSH1 0x0 MSTORE PUSH1 0x40 PUSH1 0x0 KECCAK256 PUSH1 0x0 SWAP2 POP SLOAD SWAP1 PUSH2 0x100 EXP SWAP1 DIV PUSH1 0xFF AND DUP2 JUMP JUMPDEST PUSH1 0x0 DUP1 SLOAD SWAP1 PUSH2 0x100 EXP SWAP1 DIV PUSH20 0xFFFFFFFFFFFFFFFFFFFFFFFFFFFFFFFFFFFFFFFF AND DUP2 JUMP JUMPDEST PUSH1 0x5 PUSH1 0x20 MSTORE DUP1 PUSH1 0x0 MSTORE PUSH1 0x40 PUSH1 0x0 KECCAK256 PUSH1 0x0 SWAP2 POP SWAP1 POP DUP1 PUSH1 0x0 ADD DUP1 SLOAD PUSH2 0x407 SWAP1 PUSH2 0xB66 JUMP JUMPDEST DUP1 PUSH1 0x1F ADD PUSH1 0x20 DUP1 SWAP2 DIV MUL PUSH1 0x20 ADD PUSH1 0x40 MLOAD SWAP1 DUP2 ADD PUSH1 0x40 MSTORE DUP1 SWAP3 SWAP2 SWAP1 DUP2 DUP2 MSTORE PUSH1 0x20 ADD DUP3 DUP1 SLOAD PUSH2 0x433 SWAP1 PUSH2 0xB66 JUMP JUMPDEST DUP1 ISZERO PUSH2 0x480 JUMPI DUP1 PUSH1 0x1F LT PUSH2 0x455 JUMPI PUSH2 0x100 DUP1 DUP4 SLOAD DIV MUL DUP4 MSTORE SWAP2 PUSH1 0x20 ADD SWAP2 PUSH2 0x480 JUMP JUMPDEST DUP3 ADD SWAP2 SWAP1 PUSH1 0x0 MSTORE PUSH1 0x20 PUSH1 0x0 KECCAK256 SWAP1 JUMPDEST DUP2 SLOAD DUP2 MSTORE SWAP1 PUSH1 0x1 ADD SWAP1 PUSH1 0x20 ADD DUP1 DUP4 GT PUSH2 0x463 JUMPI DUP3 SWAP1 SUB PUSH1 0x1F AND DUP3 ADD SWAP2 JUMPDEST POP POP POP POP POP SWAP1 DUP1 PUSH1 0x1 ADD SLOAD SWAP1 DUP1 PUSH1 0x2 ADD PUSH1 0x0 SWAP1 SLOAD SWAP1 PUSH2 0x100 EXP SWAP1 DIV PUSH20 0xFFFFFFFFFFFFFFFFFFFFFFFFFFFFFFFFFFFFFFFF AND SWAP1 DUP1 PUSH1 0x2 ADD PUSH1 0x14 SWAP1 SLOAD SWAP1 PUSH2 0x100 EXP SWAP1 DIV PUSH1 0xFF AND SWAP1 DUP1 PUSH1 0x3 ADD SLOAD SWAP1 POP DUP6 JUMP JUMPDEST PUSH1 0x3 SLOAD DUP2 JUMP JUMPDEST PUSH1 0x0 DUP1 SLOAD SWAP1 PUSH2 0x100 EXP SWAP1 DIV PUSH20 0xFFFFFFFFFFFFFFFFFFFFFFFFFFFFFFFFFFFFFFFF AND PUSH20 0xFFFFFFFFFFFFFFFFFFFFFFFFFFFFFFFFFFFFFFFF AND CALLER PUSH20 0xFFFFFFFFFFFFFFFFFFFFFFFFFFFFFFFFFFFFFFFF AND EQ PUSH2 0x52D JUMPI PUSH1 0x0 DUP1 REVERT JUMPDEST PUSH1 0x0 PUSH1 0x4 PUSH1 0x0 DUP2 SLOAD DUP1 SWAP3 SWAP2 SWAP1 PUSH2 0x542 SWAP1 PUSH2 0xB98 JUMP JUMPDEST SWAP2 SWAP1 POP SSTORE SWAP1 POP PUSH1 0x0 PUSH1 0x5 PUSH1 0x0 DUP4 DUP2 MSTORE PUSH1 0x20 ADD SWAP1 DUP2 MSTORE PUSH1 0x20 ADD PUSH1 0x0 KECCAK256 SWAP1 POP DUP6 DUP6 DUP3 PUSH1 0x0 ADD SWAP2 SWAP1 PUSH2 0x572 SWAP3 SWAP2 SWAP1 PUSH2 0x7B8 JUMP JUMPDEST POP DUP4 DUP2 PUSH1 0x1 ADD DUP2 SWAP1 SSTORE POP DUP3 DUP2 PUSH1 0x2 ADD PUSH1 0x0 PUSH2 0x100 EXP DUP2 SLOAD DUP2 PUSH20 0xFFFFFFFFFFFFFFFFFFFFFFFFFFFFFFFFFFFFFFFF MUL NOT AND SWAP1 DUP4 PUSH20 0xFFFFFFFFFFFFFFFFFFFFFFFFFFFFFFFFFFFFFFFF AND MUL OR SWAP1 SSTORE POP PUSH1 0x0 DUP2 PUSH1 0x2 ADD PUSH1 0x14 PUSH2 0x100 EXP DUP2 SLOAD DUP2 PUSH1 0xFF MUL NOT AND SWAP1 DUP4 ISZERO ISZERO MUL OR SWAP1 SSTORE POP PUSH1 0x0 DUP2 PUSH1 0x3 ADD DUP2 SWAP1 SSTORE POP POP POP POP POP POP POP JUMP JUMPDEST PUSH1 0x1 SLOAD DUP2 JUMP JUMPDEST PUSH1 0x4 SLOAD DUP2 JUMP JUMPDEST PUSH1 0x1 SLOAD CALLVALUE GT PUSH2 0x608 JUMPI PUSH1 0x0 DUP1 REVERT JUMPDEST PUSH1 0x1 PUSH1 0x2 PUSH1 0x0 CALLER PUSH20 0xFFFFFFFFFFFFFFFFFFFFFFFFFFFFFFFFFFFFFFFF AND PUSH20 0xFFFFFFFFFFFFFFFFFFFFFFFFFFFFFFFFFFFFFFFF AND DUP2 MSTORE PUSH1 0x20 ADD SWAP1 DUP2 MSTORE PUSH1 0x20 ADD PUSH1 0x0 KECCAK256 PUSH1 0x0 PUSH2 0x100 EXP DUP2 SLOAD DUP2 PUSH1 0xFF MUL NOT AND SWAP1 DUP4 ISZERO ISZERO MUL OR SWAP1 SSTORE POP PUSH1 0x3 PUSH1 0x0 DUP2 SLOAD DUP1 SWAP3 SWAP2 SWAP1 PUSH2 0x673 SWAP1 PUSH2 0xB98 JUMP JUMPDEST SWAP2 SWAP1 POP SSTORE POP JUMP JUMPDEST PUSH1 0x0 PUSH1 0x5 PUSH1 0x0 DUP4 DUP2 MSTORE PUSH1 0x20 ADD SWAP1 DUP2 MSTORE PUSH1 0x20 ADD PUSH1 0x0 KECCAK256 SWAP1 POP PUSH1 0x2 PUSH1 0x0 CALLER PUSH20 0xFFFFFFFFFFFFFFFFFFFFFFFFFFFFFFFFFFFFFFFF AND PUSH20 0xFFFFFFFFFFFFFFFFFFFFFFFFFFFFFFFFFFFFFFFF AND DUP2 MSTORE PUSH1 0x20 ADD SWAP1 DUP2 MSTORE PUSH1 0x20 ADD PUSH1 0x0 KECCAK256 PUSH1 0x0 SWAP1 SLOAD SWAP1 PUSH2 0x100 EXP SWAP1 DIV PUSH1 0xFF AND PUSH2 0x6E7 JUMPI PUSH1 0x0 DUP1 REVERT JUMPDEST DUP1 PUSH1 0x4 ADD PUSH1 0x0 CALLER PUSH20 0xFFFFFFFFFFFFFFFFFFFFFFFFFFFFFFFFFFFFFFFF AND PUSH20 0xFFFFFFFFFFFFFFFFFFFFFFFFFFFFFFFFFFFFFFFF AND DUP2 MSTORE PUSH1 0x20 ADD SWAP1 DUP2 MSTORE PUSH1 0x20 ADD PUSH1 0x0 KECCAK256 PUSH1 0x0 SWAP1 SLOAD SWAP1 PUSH2 0x100 EXP SWAP1 DIV PUSH1 0xFF AND ISZERO PUSH2 0x740 JUMPI PUSH1 0x0 DUP1 REVERT JUMPDEST PUSH1 0x1 DUP2 PUSH1 0x4 ADD PUSH1 0x0 CALLER PUSH20 0xFFFFFFFFFFFFFFFFFFFFFFFFFFFFFFFFFFFFFFFF AND PUSH20 0xFFFFFFFFFFFFFFFFFFFFFFFFFFFFFFFFFFFFFFFF AND DUP2 MSTORE PUSH1 0x20 ADD SWAP1 DUP2 MSTORE PUSH1 0x20 ADD PUSH1 0x0 KECCAK256 PUSH1 0x0 PUSH2 0x100 EXP DUP2 SLOAD DUP2 PUSH1 0xFF MUL NOT AND SWAP1 DUP4 ISZERO ISZERO MUL OR SWAP1 SSTORE POP DUP1 PUSH1 0x3 ADD PUSH1 0x0 DUP2 SLOAD DUP1 SWAP3 SWAP2 SWAP1 PUSH2 0x7AF SWAP1 PUSH2 0xB98 JUMP JUMPDEST SWAP2 SWAP1 POP SSTORE POP POP POP JUMP JUMPDEST DUP3 DUP1 SLOAD PUSH2 0x7C4 SWAP1 PUSH2 0xB66 JUMP JUMPDEST SWAP1 PUSH1 0x0 MSTORE PUSH1 0x20 PUSH1 0x0 KECCAK256 SWAP1 PUSH1 0x1F ADD PUSH1 0x20 SWAP1 DIV DUP2 ADD SWAP3 DUP3 PUSH2 0x7E6 JUMPI PUSH1 0x0 DUP6 SSTORE PUSH2 0x82D JUMP JUMPDEST DUP3 PUSH1 0x1F LT PUSH2 0x7FF JUMPI DUP1 CALLDATALOAD PUSH1 0xFF NOT AND DUP4 DUP1 ADD OR DUP6 SSTORE PUSH2 0x82D JUMP JUMPDEST DUP3 DUP1 ADD PUSH1 0x1 ADD DUP6 SSTORE DUP3 ISZERO PUSH2 0x82D JUMPI SWAP2 DUP3 ADD JUMPDEST DUP3 DUP2 GT ISZERO PUSH2 0x82C JUMPI DUP3 CALLDATALOAD DUP3 SSTORE SWAP2 PUSH1 0x20 ADD SWAP2 SWAP1 PUSH1 0x1 ADD SWAP1 PUSH2 0x811 JUMP JUMPDEST JUMPDEST POP SWAP1 POP PUSH2 0x83A SWAP2 SWAP1 PUSH2 0x83E JUMP JUMPDEST POP SWAP1 JUMP JUMPDEST JUMPDEST DUP1 DUP3 GT ISZERO PUSH2 0x857 JUMPI PUSH1 0x0 DUP2 PUSH1 0x0 SWAP1 SSTORE POP PUSH1 0x1 ADD PUSH2 0x83F JUMP JUMPDEST POP SWAP1 JUMP JUMPDEST PUSH1 0x0 DUP2 CALLDATALOAD SWAP1 POP PUSH2 0x86A DUP2 PUSH2 0xC7F JUMP JUMPDEST SWAP3 SWAP2 POP POP JUMP JUMPDEST PUSH1 0x0 DUP1 DUP4 PUSH1 0x1F DUP5 ADD SLT PUSH2 0x882 JUMPI PUSH1 0x0 DUP1 REVERT JUMPDEST DUP3 CALLDATALOAD SWAP1 POP PUSH8 0xFFFFFFFFFFFFFFFF DUP2 GT ISZERO PUSH2 0x89B JUMPI PUSH1 0x0 DUP1 REVERT JUMPDEST PUSH1 0x20 DUP4 ADD SWAP2 POP DUP4 PUSH1 0x1 DUP3 MUL DUP4 ADD GT ISZERO PUSH2 0x8B3 JUMPI PUSH1 0x0 DUP1 REVERT JUMPDEST SWAP3 POP SWAP3 SWAP1 POP JUMP JUMPDEST PUSH1 0x0 DUP2 CALLDATALOAD SWAP1 POP PUSH2 0x8C9 DUP2 PUSH2 0xC96 JUMP JUMPDEST SWAP3 SWAP2 POP POP JUMP JUMPDEST PUSH1 0x0 PUSH1 0x20 DUP3 DUP5 SUB SLT ISZERO PUSH2 0x8E1 JUMPI PUSH1 0x0 DUP1 REVERT JUMPDEST PUSH1 0x0 PUSH2 0x8EF DUP5 DUP3 DUP6 ADD PUSH2 0x85B JUMP JUMPDEST SWAP2 POP POP SWAP3 SWAP2 POP POP JUMP JUMPDEST PUSH1 0x0 DUP1 PUSH1 0x0 DUP1 PUSH1 0x60 DUP6 DUP8 SUB SLT ISZERO PUSH2 0x90E JUMPI PUSH1 0x0 DUP1 REVERT JUMPDEST PUSH1 0x0 DUP6 ADD CALLDATALOAD PUSH8 0xFFFFFFFFFFFFFFFF DUP2 GT ISZERO PUSH2 0x928 JUMPI PUSH1 0x0 DUP1 REVERT JUMPDEST PUSH2 0x934 DUP8 DUP3 DUP9 ADD PUSH2 0x870 JUMP JUMPDEST SWAP5 POP SWAP5 POP POP PUSH1 0x20 PUSH2 0x947 DUP8 DUP3 DUP9 ADD PUSH2 0x8BA JUMP JUMPDEST SWAP3 POP POP PUSH1 0x40 PUSH2 0x958 DUP8 DUP3 DUP9 ADD PUSH2 0x85B JUMP JUMPDEST SWAP2 POP POP SWAP3 SWAP6 SWAP2 SWAP5 POP SWAP3 POP JUMP JUMPDEST PUSH1 0x0 PUSH1 0x20 DUP3 DUP5 SUB SLT ISZERO PUSH2 0x976 JUMPI PUSH1 0x0 DUP1 REVERT JUMPDEST PUSH1 0x0 PUSH2 0x984 DUP5 DUP3 DUP6 ADD PUSH2 0x8BA JUMP JUMPDEST SWAP2 POP POP SWAP3 SWAP2 POP POP JUMP JUMPDEST PUSH2 0x996 DUP2 PUSH2 0xAEB JUMP JUMPDEST DUP3 MSTORE POP POP JUMP JUMPDEST PUSH2 0x9A5 DUP2 PUSH2 0xAFD JUMP JUMPDEST DUP3 MSTORE POP POP JUMP JUMPDEST PUSH1 0x0 PUSH2 0x9B6 DUP3 PUSH2 0xA9E JUMP JUMPDEST PUSH2 0x9C0 DUP2 DUP6 PUSH2 0xAA9 JUMP JUMPDEST SWAP4 POP PUSH2 0x9D0 DUP2 DUP6 PUSH1 0x20 DUP7 ADD PUSH2 0xB33 JUMP JUMPDEST PUSH2 0x9D9 DUP2 PUSH2 0xC6E JUMP JUMPDEST DUP5 ADD SWAP2 POP POP SWAP3 SWAP2 POP POP JUMP JUMPDEST PUSH2 0x9ED DUP2 PUSH2 0xB29 JUMP JUMPDEST DUP3 MSTORE POP POP JUMP JUMPDEST PUSH1 0x0 PUSH1 0x20 DUP3 ADD SWAP1 POP PUSH2 0xA08 PUSH1 0x0 DUP4 ADD DUP5 PUSH2 0x98D JUMP JUMPDEST SWAP3 SWAP2 POP POP JUMP JUMPDEST PUSH1 0x0 PUSH1 0x20 DUP3 ADD SWAP1 POP PUSH2 0xA23 PUSH1 0x0 DUP4 ADD DUP5 PUSH2 0x99C JUMP JUMPDEST SWAP3 SWAP2 POP POP JUMP JUMPDEST PUSH1 0x0 PUSH1 0xA0 DUP3 ADD SWAP1 POP DUP2 DUP2 SUB PUSH1 0x0 DUP4 ADD MSTORE PUSH2 0xA43 DUP2 DUP9 PUSH2 0x9AB JUMP JUMPDEST SWAP1 POP PUSH2 0xA52 PUSH1 0x20 DUP4 ADD DUP8 PUSH2 0x9E4 JUMP JUMPDEST PUSH2 0xA5F PUSH1 0x40 DUP4 ADD DUP7 PUSH2 0x98D JUMP JUMPDEST PUSH2 0xA6C PUSH1 0x60 DUP4 ADD DUP6 PUSH2 0x99C JUMP JUMPDEST PUSH2 0xA79 PUSH1 0x80 DUP4 ADD DUP5 PUSH2 0x9E4 JUMP JUMPDEST SWAP7 SWAP6 POP POP POP POP POP POP JUMP JUMPDEST PUSH1 0x0 PUSH1 0x20 DUP3 ADD SWAP1 POP PUSH2 0xA98 PUSH1 0x0 DUP4 ADD DUP5 PUSH2 0x9E4 JUMP JUMPDEST SWAP3 SWAP2 POP POP JUMP JUMPDEST PUSH1 0x0 DUP2 MLOAD SWAP1 POP SWAP2 SWAP1 POP JUMP JUMPDEST PUSH1 0x0 DUP3 DUP3 MSTORE PUSH1 0x20 DUP3 ADD SWAP1 POP SWAP3 SWAP2 POP POP JUMP JUMPDEST PUSH1 0x0 PUSH2 0xAC5 DUP3 PUSH2 0xB29 JUMP JUMPDEST SWAP2 POP PUSH2 0xAD0 DUP4 PUSH2 0xB29 JUMP JUMPDEST SWAP3 POP DUP3 PUSH2 0xAE0 JUMPI PUSH2 0xADF PUSH2 0xC10 JUMP JUMPDEST JUMPDEST DUP3 DUP3 DIV SWAP1 POP SWAP3 SWAP2 POP POP JUMP JUMPDEST PUSH1 0x0 PUSH2 0xAF6 DUP3 PUSH2 0xB09 JUMP JUMPDEST SWAP1 POP SWAP2 SWAP1 POP JUMP JUMPDEST PUSH1 0x0 DUP2 ISZERO ISZERO SWAP1 POP SWAP2 SWAP1 POP JUMP JUMPDEST PUSH1 0x0 PUSH20 0xFFFFFFFFFFFFFFFFFFFFFFFFFFFFFFFFFFFFFFFF DUP3 AND SWAP1 POP SWAP2 SWAP1 POP JUMP JUMPDEST PUSH1 0x0 DUP2 SWAP1 POP SWAP2 SWAP1 POP JUMP JUMPDEST PUSH1 0x0 JUMPDEST DUP4 DUP2 LT ISZERO PUSH2 0xB51 JUMPI DUP1 DUP3 ADD MLOAD DUP2 DUP5 ADD MSTORE PUSH1 0x20 DUP2 ADD SWAP1 POP PUSH2 0xB36 JUMP JUMPDEST DUP4 DUP2 GT ISZERO PUSH2 0xB60 JUMPI PUSH1 0x0 DUP5 DUP5 ADD MSTORE JUMPDEST POP POP POP POP JUMP JUMPDEST PUSH1 0x0 PUSH1 0x2 DUP3 DIV SWAP1 POP PUSH1 0x1 DUP3 AND DUP1 PUSH2 0xB7E JUMPI PUSH1 0x7F DUP3 AND SWAP2 POP JUMPDEST PUSH1 0x20 DUP3 LT DUP2 EQ ISZERO PUSH2 0xB92 JUMPI PUSH2 0xB91 PUSH2 0xC3F JUMP JUMPDEST JUMPDEST POP SWAP2 SWAP1 POP JUMP JUMPDEST PUSH1 0x0 PUSH2 0xBA3 DUP3 PUSH2 0xB29 JUMP JUMPDEST SWAP2 POP PUSH32 0xFFFFFFFFFFFFFFFFFFFFFFFFFFFFFFFFFFFFFFFFFFFFFFFFFFFFFFFFFFFFFFFF DUP3 EQ ISZERO PUSH2 0xBD6 JUMPI PUSH2 0xBD5 PUSH2 0xBE1 JUMP JUMPDEST JUMPDEST PUSH1 0x1 DUP3 ADD SWAP1 POP SWAP2 SWAP1 POP JUMP JUMPDEST PUSH32 0x4E487B7100000000000000000000000000000000000000000000000000000000 PUSH1 0x0 MSTORE PUSH1 0x11 PUSH1 0x4 MSTORE PUSH1 0x24 PUSH1 0x0 REVERT JUMPDEST PUSH32 0x4E487B7100000000000000000000000000000000000000000000000000000000 PUSH1 0x0 MSTORE PUSH1 0x12 PUSH1 0x4 MSTORE PUSH1 0x24 PUSH1 0x0 REVERT JUMPDEST PUSH32 0x4E487B7100000000000000000000000000000000000000000000000000000000 PUSH1 0x0 MSTORE PUSH1 0x22 PUSH1 0x4 MSTORE PUSH1 0x24 PUSH1 0x0 REVERT JUMPDEST PUSH1 0x0 PUSH1 0x1F NOT PUSH1 0x1F DUP4 ADD AND SWAP1 POP SWAP2 SWAP1 POP JUMP JUMPDEST PUSH2 0xC88 DUP2 PUSH2 0xAEB JUMP JUMPDEST DUP2 EQ PUSH2 0xC93 JUMPI PUSH1 0x0 DUP1 REVERT JUMPDEST POP JUMP JUMPDEST PUSH2 0xC9F DUP2 PUSH2 0xB29 JUMP JUMPDEST DUP2 EQ PUSH2 0xCAA JUMPI PUSH1 0x0 DUP1 REVERT JUMPDEST POP JUMP INVALID LOG2 PUSH5 0x6970667358 0x22 SLT KECCAK256 PUSH1 0x1B BYTE TIMESTAMP 0xCE GT EXTCODESIZE BYTE JUMPI 0xBA 0x4C DELEGATECALL 0xD3 0xB5 DUP15 GT 0xA7 SGT PUSH26 0x4DB82F034E68E55E38DA84BDA964736F6C634300080400330000 "},"gasEstimates":{"creation":{"codeDepositCost":"659800","executionCost":"infinite","totalCost":"infinite"},"external":{"approveRequest(uint256)":"infinite","approvers(address)":"1568","approversCount()":"1218","contribute()":"42924","createRequest(string,uint256,address)":"infinite","finalizeRequest(uint256)":"infinite","manager()":"1256","minimumContribution()":"1151","numRequests()":"1173","requests(uint256)":"infinite"}},"methodIdentifiers":{"approveRequest(uint256)":"d7d1bbdb","approvers(address)":"0a144391","approversCount()":"82fde093","contribute()":"d7bb99ba","createRequest(string,uint256,address)":"8a9cfd55","finalizeRequest(uint256)":"03441006","manager()":"481c6a75","minimumContribution()":"937e09b1","numRequests()":"9fb42b1f","requests(uint256)":"81d12c58"}},"storageLayout":{"storage":[{"astId":56,"contract":"contracts:Campaign","label":"manager","offset":0,"slot":"0","type":"t_address"},{"astId":58,"contract":"contracts:Campaign","label":"minimumContribution","offset":0,"slot":"1","type":"t_uint256"},{"astId":62,"contract":"contracts:Campaign","label":"approvers","offset":0,"slot":"2","type":"t_mapping(t_address,t_bool)"},{"astId":64,"contract":"contracts:Campaign","label":"approversCount","offset":0,"slot":"3","type":"t_uint256"},{"astId":66,"contract":"contracts:Campaign","label":"numRequests","offset":0,"slot":"4","type":"t_uint256"},{"astId":71,"contract":"contracts:Campaign","label":"requests","offset":0,"slot":"5","type":"t_mapping(t_uint256,t_struct(Request)54_storage)"}],"types":{"t_address":{"encoding":"inplace","label":"address","numberOfBytes":"20"},"t_bool":{"encoding":"inplace","label":"bool","numberOfBytes":"1"},"t_mapping(t_address,t_bool)":{"encoding":"mapping","key":"t_address","label":"mapping(address => bool)","numberOfBytes":"32","value":"t_bool"},"t_mapping(t_uint256,t_struct(Request)54_storage)":{"encoding":"mapping","key":"t_uint256","label":"mapping(uint256 => struct Campaign.Request)","numberOfBytes":"32","value":"t_struct(Request)54_storage"},"t_string_storage":{"encoding":"bytes","label":"string","numberOfBytes":"32"},"t_struct(Request)54_storage":{"encoding":"inplace","label":"struct Campaign.Request","members":[{"astId":41,"contract":"contracts:Campaign","label":"description","offset":0,"slot":"0","type":"t_string_storage"},{"astId":43,"contract":"contracts:Campaign","label":"value","offset":0,"slot":"1","type":"t_uint256"},{"astId":45,"contract":"contracts:Campaign","label":"recipient","offset":0,"slot":"2","type":"t_address"},{"astId":47,"contract":"contracts:Campaign","label":"complete","offset":20,"slot":"2","type":"t_bool"},{"astId":49,"contract":"contracts:Campaign","label":"approvalCount","offset":0,"slot":"3","type":"t_uint256"},{"astId":53,"contract":"contracts:Campaign","label":"voters","offset":0,"slot":"4","type":"t_mapping(t_address,t_bool)"}],"numberOfBytes":"160"},"t_uint256":{"encoding":"inplace","label":"uint256","numberOfBytes":"32"}}},"userdoc":{"kind":"user","methods":{},"version":1}}